:020000040800F2
:1000000000500020B90E0008350E00083B0E000815
:10001000410E0008470E00084D0E000800000000C9
:10002000000000000000000000000000530E000867
:100030005F0E0008000000006B0E0008770E00083D
:10004000010F0008010F0008010F0008010F000850
:10005000010F0008010F0008010F0008010F000840
:10006000010F0008010F0008010F0008010F000830
:10007000010F0008010F0008010F0008010F000820
:10008000010F0008010F0008010F0008010F000810
:10009000010F0008010F0008010F0008010F000800
:1000A000010F0008010F0008010F0008010F0008F0
:1000B000010F0008010F0008010F0008850E00085D
:1000C000990E0008010F0008010F0008010F000839
:1000D000010F0008010F0008010F0008010F0008C0
:1000E000010F0008010F0008010F000800000000C8
:1000F0000000000000000000000000000000000000
:0C01000000000000000000005FF808F1A3
:1001100010B5054C237833B9044B13B10448AFF341
:1001200000800123237010BD70000020000000003B
:10013000944A000808B5034B1BB103490348AFF3C9
:10014000008008BD0000000074000020944A0008F0
:1001500081F0004102E000BF83F0004330B54FEA78
:1001600041044FEA430594EA050F08BF90EA020FE5
:100170001FBF54EA000C55EA020C7FEA645C7FEA78
:10018000655C00F0E2804FEA5454D4EB5555B8BF9B
:100190006D420CDD2C4480EA020281EA030382EA0C
:1001A000000083EA010180EA020281EA0303362D9E
:1001B00088BF30BD11F0004F4FEA01314FF4801C71
:1001C0004CEA113102D0404261EB410113F0004F83
:1001D0004FEA03334CEA133302D0524263EB43033A
:1001E00094EA050F00F0A780A4F10104D5F1200ED8
:1001F0000DDB02FA0EFC22FA05F2801841F1000133
:1002000003FA0EF2801843FA05F359410EE0A5F106
:1002100020050EF1200E012A03FA0EFC28BF4CF037
:10022000020C43FA05F3C01851EBE37101F00045ED
:1002300007D54FF0000EDCF1000C7EEB00006EEBFA
:100240000101B1F5801F1BD3B1F5001F0CD3490884
:100250005FEA30004FEA3C0C04F101044FEA4452DB
:1002600012F5800F80F09A80BCF1004F08BF5FEA62
:10027000500C50F1000041EB045141EA050130BD42
:100280005FEA4C0C404141EB0101013C28BFB1F554
:10029000801FE9D291F0000F04BF01460020B1FA9F
:1002A00081F308BF2033A3F10B03B3F120020CDA72
:1002B0000C3208DD02F1140CC2F10C0201FA0CF050
:1002C00021FA02F10CE002F11402D8BFC2F1200CB5
:1002D00001FA02F120FA0CFCDCBF41EA0C0190406B
:1002E000E41AA2BF01EB0451294330BD6FEA0404B4
:1002F0001F3C1CDA0C340EDC04F11404C4F120029F
:1003000020FA04F001FA02F340EA030021FA04F3B0
:1003100045EA030130BDC4F10C04C4F1200220FA07
:1003200002F001FA04F340EA0300294630BD21FA45
:1003300004F0294630BD94F0000F83F4801306BF0B
:1003400081F480110134013D4EE77FEA645C18BFFF
:100350007FEA655C29D094EA050F08BF90EA020F96
:1003600005D054EA000C04BF1946104630BD91EA8E
:10037000030F1EBF0021002030BD5FEA545C05D191
:100380004000494128BF41F0004130BD14F58004D0
:100390003CBF01F5801130BD01F0004545F0FE4144
:1003A00041F470014FF0000030BD7FEA645C1ABF79
:1003B000194610467FEA655C1CBF0B46024650EAB0
:1003C000013406BF52EA033591EA030F41F40021DC
:1003D00030BD00BF90F0000F04BF0021704730B562
:1003E0004FF4806404F132044FF000054FF0000137
:1003F00050E700BF90F0000F04BF0021704730B5F8
:100400004FF4806404F1320410F0004548BF4042CC
:100410004FF000013EE700BF42004FEAE2014FEA21
:1004200031014FEA02701FBF12F07F4393F07F4FFC
:1004300081F06051704732F07F4208BF704793F0FF
:100440007F4F04BF41F40021704730B54FF4607412
:1004500001F0004521F000411CE700BF50EA010215
:1004600008BF704730B54FF000050AE050EA0102BE
:1004700008BF704730B511F0004502D5404261EB2E
:1004800041014FF4806404F132045FEA915C3FF46F
:10049000D8AE4FF003025FEADC0C18BF03325FEA0C
:1004A000DC0C18BF033202EBDC02C2F1200300FABD
:1004B00003FC20FA02F001FA03FE40EA0E0021FAE2
:1004C00002F11444BDE600BF70B54FF0FF0C4CF4D0
:1004D000E06C1CEA11541DBF1CEA135594EA0C0F82
:1004E00095EA0C0F00F0DEF82C4481EA030621EABD
:1004F0004C5123EA4C5350EA013518BF52EA0335F8
:1005000041F4801143F4801338D0A0FB02CE4FF0A9
:100510000005E1FB02E506F00042E0FB03E54FF0D9
:100520000006E1FB03569CF0000F18BF4EF0010ED1
:10053000A4F1FF04B6F5007F64F5407404D25FEACD
:100540004E0E6D4146EB060642EAC62141EA555180
:100550004FEAC52040EA5E504FEACE2EB4F1FD0CC2
:1005600088BFBCF5E06F1ED8BEF1004F08BF5FEA40
:10057000500E50F1000041EB045170BD06F00046F2
:1005800046EA010140EA020081EA0301B4EB5C049F
:10059000C2BFD4EB0C0541EA045170BD41F4801197
:1005A0004FF0000E013C00F3AB8014F1360FDEBFBC
:1005B000002001F0004170BDC4F10004203C35DA98
:1005C0000C341BDC04F11404C4F1200500FA05F31B
:1005D00020FA04F001FA05F240EA020001F00042BC
:1005E00021F0004110EBD37021FA04F642EB060132
:1005F0005EEA430E08BF20EAD37070BDC4F10C045C
:10060000C4F1200500FA04F320FA05F001FA04F21F
:1006100040EA020001F0004110EBD37041F100010B
:100620005EEA430E08BF20EAD37070BDC4F1200516
:1006300000FA05F24EEA020E20FA04F301FA05F27E
:1006400043EA020321FA04F001F0004121FA04F226
:1006500020EA020000EBD3705EEA430E08BF20EAF6
:10066000D37070BD94F0000F0FD101F00046400030
:1006700041EB010111F4801F08BF013CF7D041EAB2
:10068000060195F0000F18BF704703F000465200B6
:1006900043EB030313F4801F08BF013DF7D043EA87
:1006A0000603704794EA0C0F0CEA135518BF95EA3D
:1006B0000C0F0CD050EA410618BF52EA4306D1D1C4
:1006C00081EA030101F000414FF0000070BD50EAE3
:1006D000410606BF1046194652EA430619D094EA6D
:1006E0000C0F02D150EA013613D195EA0C0F05D157
:1006F00052EA03361CBF104619460AD181EA0301AB
:1007000001F0004141F0FE4141F470014FF0000062
:1007100070BD41F0FE4141F4780170BD70B54FF0FD
:10072000FF0C4CF4E06C1CEA11541DBF1CEA13557D
:1007300094EA0C0F95EA0C0F00F0A7F8A4EB05045F
:1007400081EA030E52EA03354FEA013100F0888056
:100750004FEA03334FF0805545EA131343EA12631F
:100760004FEA022245EA111545EA10654FEA0026D4
:100770000EF000419D4208BF964244F1FD0404F58D
:10078000407402D25B084FEA3202B61A65EB0305E9
:100790005B084FEA32024FF480104FF4002CB6EBA6
:1007A000020E75EB030E22BFB61A754640EA0C0026
:1007B0005B084FEA3202B6EB020E75EB030E22BF66
:1007C000B61A754640EA5C005B084FEA3202B6EBA7
:1007D000020E75EB030E22BFB61A754640EA9C0066
:1007E0005B084FEA3202B6EB020E75EB030E22BF36
:1007F000B61A754640EADC0055EA060E18D04FEAF4
:10080000051545EA16754FEA06164FEAC30343EA93
:1008100052734FEAC2025FEA1C1CC0D111F4801F60
:100820000BD141EA00014FF000004FF0004CB6E759
:1008300011F4801F04BF01430020B4F1FD0C88BFF8
:10084000BCF5E06F3FF6AFAEB5EB030C04BFB6EB03
:10085000020C5FEA500C50F1000041EB045170BDF6
:100860000EF0004E4EEA113114EB5C04C2BFD4EB23
:100870000C0541EA045170BD41F480114FF0000EA7
:10088000013C90E645EA060E8DE60CEA135594EA23
:100890000C0F08BF95EA0C0F3FF43BAF94EA0C0F26
:1008A0000AD150EA01347FF434AF95EA0C0F7FF49B
:1008B00025AF104619462CE795EA0C0F06D152EAEF
:1008C00003353FF4FDAE1046194622E750EA4106D3
:1008D00018BF52EA43067FF4C5AE50EA41047FF4E4
:1008E0000DAF52EA43057FF4EBAE12E74FF0FF3C49
:1008F00006E000BF4FF0010C02E000BF4FF0010C1A
:100900004DF804CD4FEA410C7FEA6C5C4FEA430C92
:1009100018BF7FEA6C5C1BD001B050EA410C0CBFE1
:1009200052EA430C91EA030F02BF90EA020F002043
:10093000704710F1000F91EA030F58BF994208BFAA
:1009400090422CBFD8176FEAE37040F00100704767
:100950004FEA410C7FEA6C5C02D150EA013C07D1BE
:100960004FEA430C7FEA6C5CD6D152EA033CD3D009
:100970005DF8040B704700BF8446104662468C4603
:100980001946634600E000BF01B5FFF7B7FF002836
:1009900048BF10F1000F01BD4DF808EDFFF7F4FF5F
:1009A0000CBF012000205DF808FB00BF4DF808EDEA
:1009B000FFF7EAFF34BF012000205DF808FB00BF0D
:1009C0004DF808EDFFF7E0FF94BF012000205DF82F
:1009D00008FB00BF4DF808EDFFF7CEFF94BF0120E4
:1009E00000205DF808FB00BF4DF808EDFFF7C4FFDD
:1009F00034BF012000205DF808FB00BF4FEA410C26
:100A00007FEA6C5C02D150EA013C0AD14FEA430C08
:100A10007FEA6C5C02D152EA033C02D14FF0000045
:100A200070474FF001007047D0B500220B4B0646CF
:100A30000F46FFF749FD00F015F80446FFF7CAFC22
:100A40000022074BFFF740FD02460B463046394671
:100A5000FFF782FB00F006F82146D0BD0000F03D14
:100A60000000F0414A0011D212F5001211D20DD54A
:100A70006FF47873B3EB62520ED44FEAC12343F0A4
:100A8000004343EA505323FA02F070474FF000004E
:100A9000704750EA013002D14FF0FF3070474FF0FD
:100AA00000007047B0B582B000AF786005222F49D2
:100AB0002F4800F0F9FE2D4B1B781A062B4B5B7864
:100AC0001B041A43294B9B781B021343274AD278F5
:100AD00013431A46274B1A60244B1A79264B1A7077
:100AE000254B1B781846FFF775FC02460B464FF066
:100AF0000000224903F0C4F802460B46104619468E
:100B0000FFF792FF02460B461D49C1E90023194B2E
:100B10001B681846FFF76EFC04460D46184BD3E9D8
:100B2000002310461946FFF799FC02460B46204663
:100B30002946FFF7F3FD02460B461249C1E900239F
:100B4000114B1B7819460F4BD3E900230F48C900FE
:100B50000144C1E900230C4B1B780133DAB20A4B84
:100B60001A7000BF0837BD46B0BD00BFE0000020CE
:100B70008C000020F0000020F40000200000244041
:100B8000F8000020E8000020E00200200001002022
:100B900080B582B000AF78600B46FB7013463B8097
:100BA000FB78012B06D1082305220549054800F0F2
:100BB000E9FE01E000F0B8F800BF0837BD4680BD8F
:100BC000E00000208C00002080B500AF00F09AF912
:100BD00000F012F800F07AF800F04AF8044800F04B
:100BE00043FF05220349024800F05EFEFEE700BF16
:100BF0008C000020E000002080B590B000AF07F12D
:100C0000180328220021184603F008F83B1D002293
:100C10001A605A609A60DA601A610223BB6101238C
:100C2000BB621023FB6200237B6307F118031846A5
:100C300002F0F8FB0346002B01D000F075F80F23FB
:100C40007B600023BB600023FB6000233B6100232B
:100C50007B613B1D0021184602F066FE0346002B17
:100C600001D000F061F800BF4037BD4680BD0000F4
:100C700080B500AF124B134A1A60114B124A5A60EA
:100C80000F4B00229A600E4B2422DA600C4B4FF47B
:100C900080421A610A4B00225A61094B00229A6174
:100CA000074B0022DA61064B00221A62044800F06A
:100CB000A3FC0346002B01D000F036F800BF80BD36
:100CC0008C00002000540040A086010080B485B054
:100CD00000AF144B9B69134A43F020039361114BFF
:100CE0009B6903F02003FB60FB680E4B9B690D4A78
:100CF00043F0040393610B4B9B6903F00403BB6057
:100D0000BB68084B9B69074A43F008039361054B96
:100D10009B6903F008037B607B6800BF1437BD4606
:100D200080BC70470010024080B400AF72B600BFB4
:100D3000FEE7000080B485B000AF154B9B69144AF4
:100D400043F001039361124B9B6903F00103BB6005
:100D5000BB680F4BDB690E4A43F08053D3610C4BE9
:100D6000DB6903F080537B607B680A4B5B68FB6048
:100D7000FB6823F0E063FB60FB6843F00073FB60FB
:100D8000044AFB68536000BF1437BD4680BC7047FF
:100D9000001002400000014080B588B000AF7860CC
:100DA00007F1100300221A605A609A60DA607B68CB
:100DB0001B681D4A934233D11C4B9B691B4A43F06D
:100DC00008039361194B9B6903F00803FB60FB6800
:100DD000C0233B6112237B610323FB6107F11003F6
:100DE0001946134800F084FA104BDB690F4A43F4AC
:100DF0000013D3610D4BDB6903F40013BB60BB68C8
:100E0000002200211F2000F0B6F91F2000F0CFF9CA
:100E100000220021202000F0AEF9202000F0C7F9C8
:100E200000BF2037BD4680BD005400400010024086
:100E3000000C014080B400AFFEE780B400AFFEE7D5
:100E400080B400AFFEE780B400AFFEE780B400AF2F
:100E5000FEE780B400AF00BFBD4680BC704780B4E1
:100E600000AF00BFBD4680BC704780B400AF00BF7C
:100E7000BD4680BC704780B500AF00F089F800BF68
:100E800080BD000080B500AF024800F022FE00BF28
:100E900080BD00BF8C00002080B500AF024800F08C
:100EA0006BFF00BF80BD00BF8C00002080B400AF8E
:100EB00000BFBD4680BC7047FFF7F8FF0B480C49E8
:100EC0000C4A002302E0D458C4500433C4188C42A6
:100ED000F9D3094A094C002301E013600432A2420D
:100EE000FBD302F0A9FEFFF76FFE70470000002061
:100EF00070000020184B0008700000202004002023
:100F0000FEE7000080B500AF084B1B68074A43F0BE
:100F100010031360032000F023F90F2000F008F8FD
:100F2000FFF708FF0023184680BD00BF00200240E5
:100F300080B582B000AF7860124B1A68124B1B78F4
:100F400019464FF47A73B3FBF1F3B2FBF3F318468F
:100F500000F03BF90346002B01D001230EE07B6833
:100F60000F2B0AD8002279684FF0FF3000F003F908
:100F7000064A7B681360002300E001231846083707
:100F8000BD4680BD000000200800002004000020B5
:100F900080B400AF054B1B781A46054B1B68134401
:100FA000034A136000BFBD4680BC704708000020A4
:100FB000E402002080B400AF024B1B681846BD4617
:100FC00080BC7047E402002080B485B000AF786038
:100FD0007B6803F00703FB600C4BDB68BB60BA68FF
:100FE0004FF6FF031340BB60FB681A02BB68134354
:100FF00043F0BF6343F40033BB60044ABB68D36073
:1010000000BF1437BD4680BC704700BF00ED00E054
:1010100080B400AF044BDB681B0A03F007031846DB
:10102000BD4680BC704700BF00ED00E080B483B0D7
:1010300000AF0346FB7197F90730002B0BDBFB7900
:1010400003F01F02064997F907305B09012000FAF7
:1010500002F241F8232000BF0C37BD4680BC704728
:1010600000E100E080B483B000AF03463960FB715B
:1010700097F90730002B0ADB3B68DAB20C4997F985
:1010800007301201D2B20B4483F800230AE03B6818
:10109000DAB20849FB7903F00F03043B1201D2B224
:1010A0000B441A7600BF0C37BD4680BC704700BFAA
:1010B00000E100E000ED00E080B489B000AFF8602E
:1010C000B9607A60FB6803F00703FB61FB69C3F159
:1010D0000703042B28BF0423BB61FB690433062BE1
:1010E00002D9FB69033B00E000237B614FF0FF3234
:1010F000BB6902FA03F3DA43BB681A407B699A4082
:101100004FF0FF317B6901FA03F3D9437B680B4051
:10111000134318462437BD4680BC704780B582B063
:1011200000AF78607B68013BB3F1807F01D301237E
:101130000FE00A4A7B68013B53600F214FF0FF30FC
:10114000FFF790FF054B00229A60044B07221A60BC
:10115000002318460837BD4680BD00BF10E000E000
:1011600080B582B000AF78607868FFF72DFF00BFD0
:101170000837BD4680BD80B586B000AF0346B96074
:101180007A60FB7300237B61FFF742FF78617A6826
:10119000B9687869FFF790FF024697F90F3011465A
:1011A0001846FFF75FFF00BF1837BD4680BD80B50A
:1011B00082B000AF0346FB7197F907301846FFF77E
:1011C00035FF00BF0837BD4680BD80B582B000AF97
:1011D00078607868FFF7A2FF034618460837BD46D7
:1011E00080BD000080B584B000AF78600023FB7341
:1011F0007B6893F82130DBB2022B05D07B68042298
:101200009A630123FB7351E07B681B681A687B6853
:101210001B6822F00E021A607B681B681A687B68E4
:101220001B6822F001021A607B681B68224A934205
:1012300029D07B681B68214A934222D07B681B68B7
:101240001F4A93421AD07B681B681E4A934212D0F1
:101250007B681B681C4A93420AD07B681B681B4A48
:10126000934202D14FF480130EE04FF080730BE0F5
:101270004FF4803308E04FF4805305E04FF480735F
:1012800002E0102300E00123114A53607B68012231
:1012900083F821207B68002283F820207B685B6B29
:1012A000002B03D07B685B6B78689847FB7B184604
:1012B0001037BD4680BD00BF080002401C00024040
:1012C0003000024044000240580002406C000240DE
:1012D0000000024080B483B000AF78607B6893F870
:1012E0002130DBB218460C37BD4680BC7047000089
:1012F00080B48BB000AF7860396000237B6200233C
:101300003B6269E101227B6A02FA03F3FB613B68FD
:101310001B68FA691340BB61BA69FB699A4240F0E5
:1013200058813B685B689A4A93425ED0984A9342E0
:1013300075D8984A934258D0964A93426FD8964AA5
:10134000934252D0944A934269D8944A93424CD0E3
:10135000924A934263D8924A934246D0904A93422B
:101360005DD8122B2AD8122B59D801A252F823F09B
:10137000EB130008C5130008D71300081914000860
:101380001F1400081F1400081F1400081F14000871
:101390001F1400081F1400081F1400081F14000861
:1013A0001F1400081F1400081F1400081F14000851
:1013B0001F140008CD130008E1130008794A934276
:1013C00013D02CE03B68DB683B6229E03B68DB68BC
:1013D00004333B6224E03B68DB6808333B621FE078
:1013E0003B68DB680C333B621AE03B689B68002B70
:1013F00002D104233B6213E03B689B68012B05D1BB
:1014000008233B627B68FA691A6109E008233B62A2
:101410007B68FA695A6103E000233B6200E000BF89
:10142000BB69FF2B01D87B6801E07B6804337B61DB
:10143000BB69FF2B02D87B6A9B0002E07B6A083BFA
:101440009B003B617B691A680F213B6901FA03F33A
:10145000DB431A40396A3B6901FA03F31A437B699B
:101460001A603B685B6803F08053002B00F0B1808A
:101470004D4B9B694C4A43F0010393614A4B9B6976
:1014800003F00103BB60BB68484A7B6A9B080233D8
:1014900052F82330FB607B6A03F003039B000F22AA
:1014A00002FA03F3DB43FA681340FB607B68404AAF
:1014B000934213D07B683F4A93420DD07B683E4AEB
:1014C000934207D07B683D4A934201D1032306E053
:1014D000042304E0022302E0012300E000237A6AEF
:1014E00002F0030292009340FA681343FB602F4915
:1014F0007B6A9B080233FA6841F823203B685B68EB
:1015000003F48013002B06D02D4B9A682C49BB693D
:1015100013438B6006E02A4B9A68BB69DB4328497A
:1015200013408B603B685B6803F40013002B06D00C
:10153000234BDA682249BB691343CB6006E0204B9A
:10154000DA68BB69DB431E491340CB603B685B68CC
:1015500003F40033002B06D0194B5A681849BB69B5
:1015600013434B6006E0164B5A68BB69DB431449D2
:1015700013404B603B685B6803F48033002B21D041
:101580000F4B1A680E49BB6913430B6021E000BF83
:101590000000321000003110000022100000211065
:1015A0000000121000001110001002400000014065
:1015B00000080140000C01400010014000140140EF
:1015C000000401400B4B1A68BB69DB430949134017
:1015D0000B607B6A01337B623B681A687B6A22FA84
:1015E00003F3002B7FF48EAE00BF00BF2C37BD4647
:1015F00080BC70470004014080B584B000AF7860C3
:101600007B68002B01D101232BE17B6893F83D30EF
:10161000DBB2002B06D17B68002283F83C2078687F
:10162000FFF7BAFB7B68242283F83D207B681B68A8
:101630001A687B681B6822F001021A607B681B68CD
:101640001A687B681B6842F400421A607B681B685A
:101650001A687B681B6822F400421A6002F0ACFA38
:10166000F8607B685B68814A934207D8FB68804AD0
:10167000934294BF01230023DBB206E0FB687D4A5E
:10168000934294BF01230023DBB2002B01D001233E
:10169000E7E0FB68784AA2FB03239B0CBB607B68F6
:1016A0001B685B6823F03F017B681B68BA680A43CC
:1016B0005A607B681B681B6A23F03F017B685B688C
:1016C0006A4A934202D8BB68013309E0BB684FF411
:1016D000967202FB03F3694AA2FB03239B090133C1
:1016E0007A6812680B4313627B681B68DB6923F41A
:1016F0004F4222F0FF027B685B685C498B4219D83D
:10170000FB68591E7B685B685B00B1FBF3F3591CF7
:1017100040F6FC730B40002B0AD0FB68591E7B6817
:101720005B685B00B1FBF3F30133C3F30B0351E0E0
:1017300004234FE07B689B68002B11D1FB68581E87
:101740007B6859680B465B000B44B0FBF3F3013335
:10175000C3F30B03002B0CBF01230023DBB212E009
:10176000FB68581E7B6859680B469B000B44990028
:101770000B44B0FBF3F30133C3F30B03002B0CBF9B
:1017800001230023DBB2002B01D0012322E07B6880
:101790009B68002B0ED1FB68581E7B6859680B466E
:1017A0005B000B44B0FBF3F30133C3F30B0343F4CF
:1017B00000430FE0FB68581E7B6859680B469B008E
:1017C0000B4499000B44B0FBF3F30133C3F30B0359
:1017D00043F44043796809681343CB617B681B6815
:1017E0001B6823F0C0017B68DA697B681B6A1A43B7
:1017F0007B681B680A431A607B681B689B6823F43C
:10180000034323F0FF037A6811697A68D2681143B1
:101810007A6812680B4393607B681B68DB6823F06F
:10182000FF017B685A697B689B691A437B681B6868
:101830000A43DA607B681B681A687B681B6842F0A1
:1018400001021A607B6800221A647B68202283F8F8
:101850003D207B6800221A637B68002283F83E20CB
:10186000002318461037BD4680BD00BFA08601008A
:101870007F841E00FF083D0083DE1B43D34D6210B2
:1018800080B483B000AF78607B681B685B6903F04D
:101890008003802B03D17B681B6800221A6100BF84
:1018A0000C37BD4680BC704780B485B000AFF8608F
:1018B000B9601346FB80FB6893F83D30DBB2202B08
:1018C00058D1BB68002B02D0FB88002B01D101232B
:1018D00051E0FB6893F83C30012B01D102234AE030
:1018E000FB68012283F83C20FB681B681B6803F03F
:1018F0000103012B07D0FB681B681A68FB681B6893
:1019000042F001021A60FB681B681A68FB681B68DA
:1019100022F400621A60FB68222283F83D20FB68F3
:10192000202283F83E20FB6800221A64FB68BA6814
:101930005A62FB68FA885A85FB685B8D9AB2FB682D
:101940001A85FB680E4ADA62FB681B681A68FB6836
:101950001B6842F480621A60FB68002283F83C2016
:10196000FB681B685A68FB681B6842F4E0625A60B7
:10197000002300E0022318461437BD4680BC7047A0
:101980000000FFFF80B487B000AFF860B9603B6033
:101990001346FB80FB6893F83D30DBB203F028036D
:1019A000282B5BD1BB68002B02D0FB88002B01D118
:1019B000012354E0FB6893F83C30012B01D1022352
:1019C0004DE0FB68012283F83C20FB681B681B6824
:1019D00003F00103012B07D0FB681B681A68FB6842
:1019E0001B6842F001021A60FB681B681A68FB68FA
:1019F0001B6822F400621A60FB682A2283F83D20EB
:101A0000FB68202283F83E20FB6800221A64FB68F2
:101A1000BA685A62FB68FA885A85FB685B8D9AB28D
:101A2000FB681A85FB683A68DA6200237B61FB6811
:101A30001B685B697B61FB681B689B697B617B69D9
:101A4000FB68002283F83C20FB681B685A68FB682F
:101A50001B6842F4E0625A60002300E0022318464B
:101A60001C37BD4680BC704780B483B000AF78603F
:101A70007B6893F83D30DBB2202B24D17B68282291
:101A800083F83D207B681B681B6803F00103012B72
:101A900007D07B681B681A687B681B6842F00102EC
:101AA0001A607B681B681A687B681B6842F4806256
:101AB0001A607B681B685A687B681B6842F4407236
:101AC0005A60002300E0022318460C37BD4680BC54
:101AD000704780B588B000AF78600023BB617B6839
:101AE0001B685B687B617B68DB6A3B617B6893F8A2
:101AF0003E30FB737B6893F83D30BB73FB7B102B50
:101B000003D0FB7B402B40F0B1807B681B689B6956
:101B1000BB617B681B685B69FB61FB6903F00103C8
:101B2000002B0DD13B69B3F52A0F03D03B69B3F10C
:101B30002A4F01D1012300E00023012B00F0148182
:101B4000FB6903F00103002B0BD07B6903F40073E6
:101B5000002B06D0786801F04BFC786800F04AFD55
:101B600083E0FB6903F00803002B08D07B6903F4D2
:101B70000073002B03D0786800F0C1FD75E0FB69AD
:101B800003F00203002B08D07B6903F40073002BE1
:101B900003D0786800F0DCFD67E0BB6903F0040364
:101BA000002B36D07B681B685B6803F40063B3F5D9
:101BB000006F00F0DB80FB6903F08003002B0DD089
:101BC0007B6903F48063002B08D0FB6903F00403F6
:101BD000002B03D1786800F0BEF946E0FB6903F002
:101BE0000403002B00F0C2807B6903F40073002B18
:101BF00000F0BC80BB7B212B03D1786800F047FA52
:101C0000B4E0FB7B402B40F0B180786800F0B5FA7F
:101C1000ACE07B681B685B6803F40063B3F5006F9E
:101C200000F0A480FB6903F04003002B0DD07B691A
:101C300003F48063002B08D0FB6903F00403002B3E
:101C400003D1786800F031FB0FE0FB6903F0040377
:101C5000002B00F08B807B6903F40073002B00F0F5
:101C60008580786800F0DCFB80E07FE07B681B6C9F
:101C7000002B04D07B681B685B69FB6107E07B6815
:101C80001B689B69BB617B681B685B69FB61FB69C7
:101C900003F00203002B11D07B6903F40073002BC7
:101CA0000CD07B681B6C002B03D07B681B689B6986
:101CB000BB61B969786800F0A2FF5AE0FB6903F0E4
:101CC0001003002B08D07B6903F40073002B03D0B2
:101CD000786800F0DDFF4CE0BB7B212B02D0BB7BA2
:101CE000292B20D1FB6903F08003002B0DD07B69E9
:101CF00003F48063002B08D0FB6903F00403002B7E
:101D000003D1786800F0BFFE32E0FB6903F0040302
:101D1000002B2DD07B6903F40073002B28D078684A
:101D200000F0EEFE24E0FB6903F04003002B0DD031
:101D30007B6903F48063002B08D0FB6903F0040384
:101D4000002B03D1786800F0FBFE12E0FB6903F082
:101D50000403002B0DD07B6903F40073002B08D023
:101D6000786800F02BFF04E000BF02E000BF00E055
:101D700000BF2037BD4680BD80B58AB000AF786017
:101D80007B681B685B693B627B681B685B68FB6107
:101D900000237B627B6893F83E30FB763B6A03F45A
:101DA0008073002B15D0FB6903F48073002B10D0D7
:101DB0007B6A43F001037B627B681B686FF480726F
:101DC0005A617B681B681A687B681B6842F4004292
:101DD0001A603B6A03F40073002B0DD0FB6903F417
:101DE0008073002B08D07B6A43F002037B627B6820
:101DF0001B686FF400725A613B6A03F48063002B26
:101E00003ED0FB6903F48073002B39D0FB7EBB7698
:101E10007B685B8D9BB27B617B6893F83D30FB7484
:101E20007B681B6BFB60BB7E202B12D17B69002B78
:101E30000FD1FB7C212B08D0FB7C292B05D0FB7C10
:101E4000282B06D1FB68212B03D1786801F050F8CC
:101E500016E07B681B686FF480625A617B6A43F00E
:101E600004037B62FB7E102B02D0FB7E402B07D14C
:101E70007B681B681A687B681B6842F400721A60F2
:101E80003B6A03F40063002B0DD0FB6903F48073FD
:101E9000002B08D07B6A43F008037B627B681B68D9
:101EA0006FF400625A617B6A002B08D07B681A6C61
:101EB0007B6A1A437B681A64786801F08DF800BF6A
:101EC0002837BD4680BD80B483B000AF786000BFC6
:101ED0000C37BD4680BC704780B483B000AF7860DB
:101EE00000BF0C37BD4680BC704780B483B000AFE4
:101EF000786000BF0C37BD4680BC704780B483B0AB
:101F000000AF786000BF0C37BD4680BC704780B41E
:101F100083B000AF786000BF0C37BD4680BC70470F
:101F200080B483B000AF786000BF0C37BD4680BC82
:101F3000704780B483B000AF786000BF0C37BD46F7
:101F400080BC704780B483B000AF786000BF0C37AE
:101F5000BD4680BC704780B584B000AF78607B68B8
:101F600093F83D30FB737B6893F83E30BB737B681E
:101F7000DB6ABB607B681B8D002B50D1FB7B212B68
:101F80004DD1BB68082B1DD0BB68202B1AD0BB6875
:101F900013F5803F16D07B681B685A687B681B6806
:101FA00022F4E0625A607B6811221A637B68002287
:101FB00083F83E207B68202283F83D207868FFF775
:101FC00082FF60E07B681B685A687B681B6822F4AC
:101FD000E0625A607B681B681A687B681B6842F481
:101FE00000721A607B6800221A637B68202283F8E3
:101FF0003D207B6893F83E30DBB2402B07D17B68F5
:10200000002283F83E207868FFF781FF3BE07B6881
:10201000002283F83E207868FFF755FF33E0FB7B12
:10202000212B05D0BB7B402B2DD1FB7B222B2AD132
:102030007B685B8D9BB2002B08D17B681B685A685C
:102040007B681B6822F480625A601CE07B6893F80E
:102050003E30DBB2402B03D1786800F08EF812E0FE
:102060007B685B6A1A787B681B681A617B685B6AAD
:102070005A1C7B685A627B685B8D9BB2013B9AB2AB
:102080007B685A85FFE700BF1037BD4680BD80B52D
:1020900084B000AF78607B68DB6AFB607B6893F894
:1020A0003D30DBB2212B64D17B685B8D9BB2002B72
:1020B00012D07B685B6A1A787B681B681A617B6840
:1020C0005B6A5A1C7B685A627B685B8D9BB2013BE2
:1020D0009AB27B685A854CE0FB68082B1DD0FB68E0
:1020E000202B1AD0FB6813F5803F16D07B681B6845
:1020F0005A687B681B6822F4E0625A607B68112290
:102100001A637B68002283F83E207B68202283F8D4
:102110003D207868FFF7D7FE2BE07B681B685A6884
:102120007B681B6822F4E0625A607B681B681A684F
:102130007B681B6842F400721A607B6800221A6395
:102140007B68202283F83D207B6893F83E30DBB229
:10215000402B07D17B68002283F83E207868FFF788
:10216000D6FE06E07B68002283F83E207868FFF701
:10217000AAFE00BF1037BD4680BD80B584B000AF59
:1021800078607B6893F83D30FB737B681B6D002B98
:102190001DD17B68DB6C012B0BD17B689B6CDAB2A9
:1021A0007B681B681A617B681B6D9A1C7B681A65CB
:1021B00077E07B689B6C9BB21B12DAB27B681B6872
:1021C0001A617B681B6D5A1C7B681A6569E07B6825
:1021D0001B6D012B0BD17B689B6CDAB27B681B6893
:1021E0001A617B681B6D5A1C7B681A6559E07B6815
:1021F0001B6D022B52D1FB7B222B0DD17B681B6800
:102200001A687B681B6842F480721A607B681B6DD9
:102210005A1C7B681A6544E07B685B8D9BB2002B7F
:1022200015D0FB7B212B12D17B685B6A1A787B6807
:102230001B681A617B685B6A5A1C7B685A627B6800
:102240005B8D9BB2013B9AB27B685A8529E07B6823
:102250005B8D9BB2002B24D1FB7B212B21D17B6892
:102260001B685A687B681B6822F4E0625A607B68CE
:102270001B681A687B681B6842F400721A607B68EE
:1022800000221A637B68202283F83D207B680022AD
:1022900083F83E207868FFF73AFE02E07868FFF79F
:1022A000EFFA00BF1037BD4680BD80B584B000AFE7
:1022B00078607B6893F83D30DBB2222B40F0AC8035
:1022C0007B685B8D9BB2FB60FB68032B21D97B682D
:1022D0001B681A697B685B6AD2B21A707B685B6A9A
:1022E0005A1C7B685A627B685B8D9BB2013B9AB239
:1022F0007B685A857B685B8D9BB2032B40F08C809A
:102300007B681B685A687B681B6822F480625A608D
:1023100082E07B68DB6A022B75D0FB68012B02D060
:10232000FB68002B6FD1786801F030F80346002B72
:1023300042D17B681B681A687B681B6822F4806244
:102340001A607B681B685A687B681B6822F4E0622D
:102350005A607B681B681A697B685B6AD2B21A7024
:102360007B685B6A5A1C7B685A627B685B8D9BB298
:10237000013B9AB27B685A857B68202283F83D2016
:102380007B6893F83E30DBB2402B0AD17B68002299
:1023900083F83E207B6800221A637868FFF7C0FD4F
:1023A0003AE07B68002283F83E207B6812221A63A1
:1023B0007868FFF791FD2FE07B681B685A687B689F
:1023C0001B6822F4E0625A607B681B681A697B68AC
:1023D0005B6AD2B21A707B685B6A5A1C7B685A626D
:1023E0007B685B8D9BB2013B9AB27B685A857B68A8
:1023F000202283F83D207B68002283F83E20786805
:10240000FFF797FD08E07B681B685A687B681B68CC
:1024100022F480625A60FFE700BF1037BD4680BDDE
:1024200080B584B000AF78607B68DB6AFB607B6856
:102430005B8D9BB2042B1BD17B681B685A687B6841
:102440001B6822F480625A607B681B681A697B688B
:102450005B6AD2B21A707B685B6A5A1C7B685A62EC
:102460007B685B8D9BB2013B9AB27B685A85BDE06D
:102470007B685B8D9BB2032B29D17B681B685A68F4
:102480007B681B6822F480625A60FB68042B0AD0C8
:10249000FB68022B07D07B681B681A687B681B6887
:1024A00022F480621A607B681B681A697B685B6A29
:1024B000D2B21A707B685B6A5A1C7B685A627B686E
:1024C0005B8D9BB2013B9AB27B685A858EE07B683C
:1024D0005B8D9BB2022B76D1FB68012B02D0FB688F
:1024E000102B08D17B681B681A687B681B6822F474
:1024F00080621A6019E0FB68042B02D0FB68022B93
:1025000008D17B681B681A687B681B6842F480628C
:102510001A600AE0FB68102B07D07B681B681A68FA
:102520007B681B6842F400721A607B681B681A693A
:102530007B685B6AD2B21A707B685B6A5A1C7B68E4
:102540005A627B685B8D9BB2013B9AB27B685A856D
:102550007B681B681A697B685B6AD2B21A707B68F9
:102560005B6A5A1C7B685A627B685B8D9BB2013B3D
:102570009AB27B685A857B681B685A687B681B68BF
:1025800022F440725A607B68202283F83D207B68E9
:1025900093F83E30DBB2402B0AD17B68002283F8EF
:1025A0003E207B6800221A637868FFF7B9FC1DE0C3
:1025B0007B68002283F83E207B6812221A637868C9
:1025C000FFF78AFC12E07B681B681A697B685B6A0C
:1025D000D2B21A707B685B6A5A1C7B685A627B684D
:1025E0005B8D9BB2013B9AB27B685A8500BF103766
:1025F000BD4680BD80B483B000AF78607B6893F83F
:102600003E30DBB2402B17D17B681B6D002B09D10C
:102610007B685B6CDBB21A467B681B6802F0FE02CB
:102620001A6167E07B685B6CDBB243F00103DAB2EE
:102630007B681B681A615DE07B681B69B3F5804F9E
:1026400033D17B6893F83D30DBB2212B09D17B6815
:102650005B6CDBB21A467B681B6802F0FE021A61F3
:1026600008E07B685B6CDBB243F00103DAB27B68A5
:102670001B681A617B685B6B002B04D07B685B6B0B
:102680009B6A002B08D17B689B6B002B32D07B6848
:102690009B6B9B6A002B2DD07B681B685A687B68FC
:1026A0001B6842F400625A6024E07B681B6D002BBB
:1026B0000ED17B685B6C9BB2DB11DBB203F00603CF
:1026C000DBB263F00F03DAB27B681B681A6111E0BA
:1026D0007B681B6D012B0DD17B685B6C9BB2DB11A2
:1026E000DBB203F00603DBB263F00E03DAB27B6801
:1026F0001B681A6100BF0C37BD4680BC704780B4B0
:1027000083B000AF78607B685B6CDAB27B681B6873
:102710001A617B685B6B002B04D07B685B6B9B6AE8
:10272000002B08D17B689B6B002B0CD07B689B6BCC
:102730009B6A002B07D07B681B685A687B681B6804
:1027400042F400625A6000BF0C37BD4680BC70473F
:1027500080B491B000AF78607B6893F83E3087F822
:102760003F307B68DB6ABB637B681B6B7B637B688A
:1027700093F83D30DBB2222B40F074817B681B6DF7
:10278000002B0FD197F83F30402B0BD100233B6338
:102790007B681B685B693B637B681B689B693B6369
:1027A0003B6B6BE17B681B6D002B1DD17B681B694C
:1027B000B3F5404F18D10023FB627B681B685B694F
:1027C000FB627B681B689B69FB62FB6A7B681B681A
:1027D0001A687B681B6842F480721A607B681B6D04
:1027E0005A1C7B681A6549E17B685B8D9BB2002BA4
:1027F00013D10023BB627B681B685B69BB627B688B
:102800001B689B69BB62BB6A7B681B681A687B6834
:102810001B6842F400721A6020E17B685B8D9BB2FA
:10282000012B40F08A80BB6B13F5803F37D17B686A
:102830001B681A687B681B6822F480621A607B68D8
:102840001B685B6803F40063B3F5006F13D17B680A
:102850001B681A687B681B6822F480621A60002378
:102860007B627B681B685B697B627B681B689B691A
:102870007B627B6AF2E000233B627B681B685B69DA
:102880003B627B681B689B693B623B6A7B681B6899
:102890001A687B681B6842F400721A60DEE0BB6B4A
:1028A000082B2ED0BB6B202B2BD07B6B122B02D195
:1028B000BB6B012B25D1BB6B042B0ED0BB6B022B4A
:1028C0000BD0BB6B102B08D07B681B681A687B6829
:1028D0001B6822F480621A6007E07B681B681A6834
:1028E0007B681B6842F480621A600023FB617B688E
:1028F0001B685B69FB617B681B689B69FB61FB690B
:10290000ACE07B681B681A687B681B6822F48062F5
:102910001A600023BB617B681B685B69BB617B68D5
:102920001B689B69BB61BB697B681B681A687B6815
:102930001B6842F400721A6090E07B685B8D9BB26A
:10294000022B58D1BB6B042B21D0BB6B022B1ED0AA
:10295000BB6B102B1BD07B681B681A687B681B68DD
:1029600042F400621A6000237B617B681B685B692C
:102970007B617B681B689B697B617B697B681B68EB
:102980001A687B681B6822F480621A6012E07B6818
:102990001B681A687B681B6842F480621A60002317
:1029A0003B617B681B685B693B617B681B689B695B
:1029B0003B613B697B681B685B6803F40063B3F5AC
:1029C000006F4BD1BB6B13F5803F0BD0BB6B012B62
:1029D00008D0BB6B082B05D0BB6B102B02D0BB6B98
:1029E000202B3BD17B681B685A687B681B6842F4CC
:1029F00080525A6032E07B681B681A687B681B68EB
:102A000042F480621A607B681B685B6803F40063B1
:102A1000B3F5006F17D1BB6B13F5803F0BD0BB6BC9
:102A2000012B08D0BB6B082B05D0BB6B102B02D041
:102A3000BB6B202B07D17B681B685A687B681B68BF
:102A400042F480525A600023FB607B681B685B691C
:102A5000FB607B681B689B69FB60FB687B680022EE
:102A60001A650BE00023BB607B681B685B69BB6079
:102A70007B681B689B69BB60BB68FFE700BF44378E
:102A8000BD4680BC704780B584B000AF78607B687D
:102A900093F83D30FB737B685B8D9BB2002B2BD092
:102AA0007B685B6A1A787B681B681A617B685B6A63
:102AB0005A1C7B685A627B685B8D9BB2013B9AB261
:102AC0007B685A857B685B8D9BB2002B14D1FB7BA6
:102AD000292B11D17B681B685A687B681B6822F41C
:102AE00080625A607B6821221A637B68282283F8FF
:102AF0003D207868FFF7F9F900BF1037BD4680BD6B
:102B000080B483B000AF78607B685B8D9BB2002B94
:102B100011D07B685B6A1A787B681B681A617B68D6
:102B20005B6A5A1C7B685A627B685B8D9BB2013B77
:102B30009AB27B685A8500BF0C37BD4680BC70478F
:102B400080B584B000AF78607B6893F83D30FB734C
:102B50007B685B8D9BB2002B2CD07B681B681A694D
:102B60007B685B6AD2B21A707B685B6A5A1C7B68AE
:102B70005A627B685B8D9BB2013B9AB27B685A8537
:102B80007B685B8D9BB2002B14D1FB7B2A2B11D170
:102B90007B681B685A687B681B6822F480625A60F5
:102BA0007B6822221A637B68282283F83D2078689C
:102BB000FDF778FF00BF1037BD4680BD80B483B0FD
:102BC00000AF78607B685B8D9BB2002B12D07B6876
:102BD0001B681A697B685B6AD2B21A707B685B6A91
:102BE0005A1C7B685A627B685B8D9BB2013B9AB230
:102BF0007B685A8500BF0C37BD4680BC704780B5E6
:102C000084B000AF786039600023FB737B6893F871
:102C10003D30DBB203F02803282B25D17B681B68ED
:102C20005A687B681B6822F480625A603B6803F034
:102C30000403002B01D10123FB733B6803F08003E5
:102C4000002B03D17B68DB68BB8102E07B689B695A
:102C5000BB817B68002283F83C20BA89FB7B194644
:102C60007868FDF795FF0EE00023BB607B681B686A
:102C70005B69BB607B681B689B69BB60BB687B68EA
:102C8000002283F83C2000BF1037BD4680BD000005
:102C900080B584B000AF78607B6893F83D30FB73FB
:102CA0007B681B685A687B681B6822F4E0625A6084
:102CB0000023BB607B681B685B69BB607B681B682B
:102CC0001A687B681B6842F001021A60BB687B6867
:102CD0001B681A687B681B6822F480621A607B6834
:102CE0001B685B6803F40063B3F5006F72D1FB7B74
:102CF000222B02D0FB7B2A2B35D17B689B6B1B6878
:102D00005B689AB27B685A857B685B8D9BB2002BAF
:102D100005D07B681B6C43F004027B681A647B68F7
:102D20001B685A687B681B6822F400625A607B68E3
:102D30009B6B1846FEF7CEFA0346012B49D07B6801
:102D40009B6B694A5A637B689B6B1846FEF74AFA8D
:102D50000346002B3DD07B689B6B5B6B7A68926B64
:102D60001046984735E07B685B6B1B685B689AB2DE
:102D70007B685A857B685B8D9BB2002B05D07B6896
:102D80001B6C43F004027B681A647B681B685A68FA
:102D90007B681B6822F400625A607B685B6B184694
:102DA000FEF798FA0346012B14D07B685B6B4E4A02
:102DB0005A637B685B6B1846FEF714FA0346002BD8
:102DC00008D07B685B6B5B6B7A68526B10469847E8
:102DD00000E000BF7B685B8D9BB2002B3ED07B6820
:102DE0001B685B6903F00403042B12D17B681B682A
:102DF0001A697B685B6AD2B21A707B685B6A5A1C7C
:102E00007B685A627B685B8D9BB2013B9AB27B68A0
:102E10005A857B681B685B6903F04003402B12D125
:102E20007B681B681A697B685B6AD2B21A707B6820
:102E30005B6A5A1C7B685A627B685B8D9BB2013B64
:102E40009AB27B685A857B685B8D9BB2002B05D05C
:102E50007B681B6C43F004027B681A647B681B6C04
:102E6000002B03D0786800F0B7F839E0FB7B2A2B01
:102E700009D17B6800221A637B68282283F83D20F1
:102E80007868FDF70FFE7B6893F83D30DBB2282BA6
:102E900011D17B68154ADA627B6800221A637B686D
:102EA000202283F83D207B68002283F83E2078684A
:102EB000FFF724F814E07B681B6B222B02D0FB7B0E
:102EC000222B0DD17B6800221A637B68202283F8B5
:102ED0003D207B68002283F83E207868FDF7E2FD04
:102EE00000BF1037BD4680BD3D3200080000FFFF27
:102EF00080B584B000AF78607B6893F83D30FB7399
:102F00007B68DB6ABB60BB68082B02D0BB68202BE8
:102F100029D1FB7B282B26D17B682E4ADA627B687D
:102F20001B685A687B681B6822F4E0625A607B6801
:102F30001B686FF480625A617B681B681A687B6843
:102F40001B6822F480621A607B6800221A637B6827
:102F5000202283F83D207B68002283F83E20786899
:102F6000FEF7CCFF31E0FB7B212B29D17B68194A8E
:102F7000DA627B6821221A637B68202283F83D2075
:102F80007B68002283F83E207B681B685A687B6858
:102F90001B6822F4E0625A607B681B686FF48062F1
:102FA0005A617B681B681A687B681B6822F4806220
:102FB0001A607868FEF764FC7868FEF796FF04E014
:102FC0007B681B686FF480625A6100BF1037BD4692
:102FD00080BD00BF0000FFFF80B584B000AF786007
:102FE0007B6893F83D30FB737B6893F83E30BB738E
:102FF000BB7B102B02D0BB7B402B0AD1FB7B222B4F
:1030000007D17B681B681A687B681B6822F4006222
:103010001A60FB7B03F02803282B07D17B68002272
:103020001A637B68282283F83D2015E07B681B68C3
:103030005B6803F40063B3F5006F0AD0FB7B602B81
:1030400007D07B68202283F83D207B68002283F82C
:103050003E207B6800221A637B681B685B6803F470
:103060000063B3F5006F62D17B681B685A687B68A8
:103070001B6822F400625A607B685B6B93F8213016
:10308000DBB2012B20D07B685B6B6A4A5A637B689A
:103090005B6B1846FEF7A6F80346002B00F089800C
:1030A0007B681B681A687B681B6822F001021A6043
:1030B0007B68202283F83D207B685B6B5B6B7A68C2
:1030C000526B1046984774E07B689B6B594A5A6371
:1030D0007B689B6B1846FEF785F80346002B68D08B
:1030E0007B681B685B6903F04003402B0BD17B6856
:1030F0001B681A697B685B6AD2B21A707B685B6A6C
:103100005A1C7B685A627B681B681A687B681B685C
:1031100022F001021A607B68202283F83D207B6840
:103120009B6B5B6B7A68926B1046984741E07B68BB
:1031300093F83D30DBB2602B25D17B68202283F8E9
:103140003D207B6800221A647B681B685B6903F082
:103150004003402B0BD17B681B681A697B685B6A54
:10316000D2B21A707B685B6A5A1C7B685A627B68B1
:103170001B681A687B681B6822F001021A60786875
:10318000FEF7E0FE15E07B681B685B6903F0400317
:10319000402B0BD17B681B681A697B685B6AD2B2D3
:1031A0001A707B685B6A5A1C7B685A627868FEF703
:1031B000C0FE7B681B6CBB60BB6803F00103002B87
:1031C0000ED1BB6803F00203002B09D1BB6803F0EA
:1031D0000403002B04D1BB6803F00803002B07D0C5
:1031E0007B681B685A687B681B6822F4E0625A603F
:1031F0007B6893F83D30FB737B681B6C03F0040322
:10320000042B13D1FB7B282B10D17B680A4ADA628E
:103210007B6800221A637B68202283F83D207B684C
:10322000002283F83E207868FEF768FE00BF103762
:10323000BD4680BD3D3200080000FFFF80B586B06E
:1032400000AF78600023FB607B685B6A7B617B6911
:1032500093F83D30FB744B4B1B68DB084A4AA2FBDA
:1032600003231A0A13469B001344DA00D31AFB60A7
:10327000FB68002B06D17B691B6C43F020027B6945
:103280001A640AE0FB68013BFB607B691B681B68F2
:1032900003F40073B3F5007FEAD07B695B6B002B0E
:1032A00003D07B695B6B00229A627B699B6B002B6E
:1032B00003D07B699B6B00229A627B691B681A684A
:1032C0007B691B6822F480621A607B6900225A8540
:1032D0007B695B6B002B03D07B695B6B00225A63BD
:1032E0007B699B6B002B03D07B699B6B00225A632D
:1032F0007B691B681A687B691B6822F001021A60EF
:103300007B6993F83D30DBB2602B0ED17B692022C4
:1033100083F83D207B69002283F83E207B690022F0
:103320001A647869FEF70EFE27E0FB7C03F02803A1
:10333000282B17D17B691B681A687B691B6842F0D0
:1033400001021A607B691B681A687B691B6842F47A
:1033500080621A607B6900221A637B69282283F8E5
:103360003D2007E07B69202283F83D207B69002215
:1033700083F83E207869FEF7DCFD00BF1837BD46B4
:1033800080BD00BF0000002089B5F81480B485B06E
:1033900000AF78600023FB60134B1B68DB08134A07
:1033A000A2FB03231A0A13469B001344FB60FB682D
:1033B000013BFB60FB68002B07D17B681B6C43F073
:1033C00020027B681A64012308E07B681B681B6885
:1033D00003F40073B3F5007FE9D0002318461437D7
:1033E000BD4680BC704700BF0000002089B5F814BE
:1033F00080B483B000AF78607B68DB6AB3F52A0FD6
:1034000003D17B680122DA6207E07B68DB6AB3F1F3
:103410002A4F02D17B680822DA6200BF0C37BD4612
:1034200080BC704780B586B000AF78607B68002BA9
:1034300001D1012372E27B681B6803F00103002BBA
:1034400000F08780924B5B6803F00C03042B0CD0D8
:103450008F4B5B6803F00C03082B12D18C4B5B681D
:1034600003F48033B3F5803F0BD1894B1B6803F421
:103470000033002B6CD07B685B68002B68D1012384
:103480004CE27B685B68B3F5803F06D1804B1B68DC
:103490007F4A43F4803313602EE07B685B68002B27
:1034A0000CD17B4B1B687A4A23F480331360784B32
:1034B0001B68774A23F4802313601DE07B685B68F8
:1034C000B3F5A02F0CD1724B1B68714A43F48023D3
:1034D00013606F4B1B686E4A43F4803313600BE03C
:1034E0006B4B1B686A4A23F480331360684B1B687C
:1034F000674A23F4802313607B685B68002B13D03A
:10350000FDF758FD386108E0FDF754FD02463B69C0
:10351000D31A642B01D9032300E25D4B1B6803F42B
:103520000033002BF0D014E0FDF744FD386108E0D3
:10353000FDF740FD02463B69D31A642B01D90323F2
:10354000ECE1534B1B6803F40033002BF0D100E097
:1035500000BF7B681B6803F00203002B63D04C4B59
:103560005B6803F00C03002B0BD0494B5B6803F046
:103570000C03082B1CD1464B5B6803F48033002BF3
:1035800016D1434B1B6803F00203002B05D07B6868
:103590001B69012B01D00123C0E13D4B1B6823F0C7
:1035A000F8027B685B69DB00394913430B603AE042
:1035B0007B681B69002B20D0364B01221A60FDF777
:1035C000F9FC386108E0FDF7F5FC02463B69D31AC7
:1035D000022B01D90323A1E12D4B1B6803F0020349
:1035E000002BF0D02A4B1B6823F0F8027B685B6944
:1035F000DB00274913430B6015E0264B00221A60BD
:10360000FDF7D8FC386108E0FDF7D4FC02463B69C1
:10361000D31A022B01D9032380E11D4B1B6803F051
:103620000203002BF0D17B681B6803F00803002B1A
:103630003AD07B689B69002B19D0174B01221A6086
:10364000FDF7B8FC386108E0FDF7B4FC02463B69C1
:10365000D31A022B01D9032360E10D4B5B6A03F0FF
:103660000203002BF0D0012000F0BAFA1CE00A4B54
:1036700000221A60FDF79EFC38610FE0FDF79AFC0E
:1036800002463B69D31A022B08D9032346E100BF47
:10369000001002400000424280044242924B5B6AAA
:1036A00003F00203002BE9D17B681B6803F00403DD
:1036B000002B00F0A6800023FB758B4BDB6903F029
:1036C0008053002B0DD1884BDB69874A43F0805330
:1036D000D361854BDB6903F08053BB60BB6801237A
:1036E000FB75824B1B6803F48073002B18D17F4B52
:1036F0001B687E4A43F480731360FDF75BFC3861FE
:1037000008E0FDF757FC02463B69D31A642B01D948
:10371000032303E1754B1B6803F48073002BF0D087
:103720007B68DB68012B06D16F4B1B6A6E4A43F046
:10373000010313622DE07B68DB68002B0CD16A4B20
:103740001B6A694A23F001031362674B1B6A664ACE
:1037500023F0040313621CE07B68DB68052B0CD1AB
:10376000614B1B6A604A43F0040313625E4B1B6AA1
:103770005D4A43F0010313620BE05B4B1B6A5A4A3C
:1037800023F001031362584B1B6A574A23F00403CA
:1037900013627B68DB68002B15D0FDF70BFC3861EA
:1037A0000AE0FDF707FC02463B69D31A41F2883272
:1037B000934201D90323B1E04B4B1B6A03F0020390
:1037C000002BEED014E0FDF7F5FB38610AE0FDF7C1
:1037D000F1FB02463B69D31A41F28832934201D988
:1037E00003239BE0404B1B6A03F00203002BEED146
:1037F000FB7D012B05D13C4BDB693B4A23F0805319
:10380000D3617B68DB69002B00F08780364B5B68F7
:1038100003F00C03082B61D07B68DB69022B46D1D7
:10382000334B00221A60FDF7C5FB386108E0FDF755
:10383000C1FB02463B69D31A022B01D903236DE079
:10384000294B1B6803F00073002BF0D17B681B6AC7
:10385000B3F5803F08D1244B5B6823F400327B68CA
:103860009B68214913434B601F4B5B6823F4741220
:103870007B68196A7B685B6A0B431B4913434B6087
:103880001B4B01221A60FDF795FB386108E0FDF73C
:1038900091FB02463B69D31A022B01D903233DE079
:1038A000114B1B6803F00073002BF0D035E0104B78
:1038B00000221A60FDF77EFB386108E0FDF77AFB15
:1038C00002463B69D31A022B01D9032326E0064B9B
:1038D0001B6803F00073002BF0D11EE07B68DB69EE
:1038E000012B07D1012319E00010024000700040B5
:1038F000600042420B4B5B68FB60FB6803F4803264
:103900007B681B6A9A4206D1FB6803F470127B68DD
:103910005B6A9A4201D0012300E000231846183761
:10392000BD4680BD0010024080B584B000AF786015
:1039300039607B68002B01D10123D0E06A4B1B6802
:1039400003F007033A689A4210D9674B1B6823F0CB
:10395000070265493B6813430B60634B1B6803F028
:1039600007033A689A4201D00123B8E07B681B68DC
:1039700003F00203002B20D07B681B6803F00403D4
:10398000002B05D0594B5B68584A43F4E063536001
:103990007B681B6803F00803002B05D0534B5B6862
:1039A000524A43F460535360504B5B6823F0F0027B
:1039B0007B689B684D4913434B607B681B6803F031
:1039C0000103002B40D07B685B68012B07D1474B7C
:1039D0001B6803F40033002B15D101237FE07B68C3
:1039E0005B68022B07D1414B1B6803F00073002B6F
:1039F00009D1012373E03D4B1B6803F00203002B48
:103A000001D101236BE0394B5B6823F003027B6833
:103A10005B68364913434B60FDF7CCFAF8600AE067
:103A2000FDF7C8FA0246FB68D31A41F28832934286
:103A300001D9032353E02D4B5B6803F00C027B6834
:103A40005B689B009A42EBD1274B1B6803F007038E
:103A50003A689A4210D2244B1B6823F0070222498D
:103A60003B6813430B60204B1B6803F007033A6865
:103A70009A4201D0012332E07B681B6803F0040303
:103A8000002B08D0194B5B6823F4E0627B68DB688D
:103A9000164913434B607B681B6803F00803002B37
:103AA00009D0124B5B6823F460527B681B69DB0012
:103AB0000E4913434B6000F021F802460B4B5B6844
:103AC0001B0903F00F030A49CB5C22FA03F3094AEE
:103AD0001360094B1B681846FDF72AFA00231846A5
:103AE0001037BD4680BD00BF0020024000100240DC
:103AF000B04A0008000000200400002080B487B015
:103B000000AF0023FB600023BB6000237B61002328
:103B10007B6000233B611E4B5B68FB60FB6803F02E
:103B20000C03042B02D0082B03D027E0194B3B6178
:103B300027E0FB689B0C03F00F03174AD35C7B6004
:103B4000FB6803F48033002B10D0114B5B685B0CD7
:103B500003F00103114AD35CBB607B680D4A03FB91
:103B600002F2BB68B2FBF3F37B6104E07B680C4AB2
:103B700002FB03F37B617B693B6102E0054B3B6128
:103B800000BF3B6918461C37BD4680BC704700BF6C
:103B90000010024000127A00C84A0008D84A000803
:103BA00000093D0080B400AF024B1B681846BD46BB
:103BB00080BC70470000002080B500AFFFF7F2FF27
:103BC0000246054B5B681B0A03F007030349CB5C05
:103BD00022FA03F3184680BD00100240C04A0008D4
:103BE00080B485B000AF78600A4B1B680A4AA2FB1C
:103BF00003235B0A7A6802FB03F3FB6000BFFB68E8
:103C00005A1EFA60002BF9D100BF00BF1437BD4621
:103C100080BC704700000020D34D62100346024470
:103C2000934200D1704703F8011BF9E7014B186874
:103C3000704700BF5800002070B500260C4D0D4C99
:103C4000641BA410A64209D100F024FF00260A4DEF
:103C50000A4C641BA410A64205D170BD55F8043B64
:103C600098470136EEE755F8043B98470136F2E7EE
:103C7000104B0008104B0008104B0008144B0008B4
:103C80002DE9F84314461D468046894600F068F841
:103C9000224606460F462B4620462946FCF7AEFE36
:103CA000C8BB0022002340464946FCF775FEB8B168
:103CB0000022002320462946FCF76EFE002841D151
:103CC0002046294600F044F828B30022002320466D
:103CD0002946FCF76BFEF0B1FFF7A8FF222319E09D
:103CE0003046394600F034F8C8B94046494600F03D
:103CF0002FF8A0B12046294600F02AF878B13246C4
:103D00003B4630463946FCF779FE0028E4D0FFF701
:103D10008DFF2123036030463946BDE8F883002239
:103D2000002330463946FCF737FE0028F3D04046E2
:103D3000494600F00DF80028EDD02046294600F055
:103D400007F8C8E70026014FE5E700BF0000F03F95
:103D500041F0004000F58010C00F704700000000E7
:103D60002DE9F04F93B0CDE90223DDE9022727F0DA
:103D70000046894656EA0201804611D1031889F4AB
:103D8000002252419942824B934180F0BA84DDE98E
:103D9000022340464946FCF7E1F983468C466FE032
:103DA0007C4B29F000449C424D46824606DC01D102
:103DB0000028ECD19E4201DC0FD172B105F14045E3
:103DC00005F5801555EA0A05E1D1DDE90232DB1877
:103DD00082F4002252419D42D5E7002D39DA6E4B24
:103DE0009E4252DCA3F154739E4240F39D843315EE
:103DF000A3F2FF33142B0FDDC3F1340322FA03F1D6
:103E000001FA03F3934240F08F8401F00101C1F104
:103E10000203009382B15DE0002A59D1C3F114037B
:103E200046FA03F101FA03F3B34240F07A8401F059
:103E30000101C1F102030093584B9E4232D1002F81
:103E400080F26B8442464B4600205449FCF766FCE6
:103E5000A3E700230093002A3CD14E4B9E42EBD1B6
:103E600004F1404303F5801353EA0A0300F0498448
:103E70004B4B9C420BDD002FC0F24984DDE902BCB4
:103E80005846614613B0BDE8F08F0223E2E7002FE9
:103E90004FF0000B4FF0000CF2DADDE902B303F152
:103EA000004CEDE7B7F1804F06D142464B46404605
:103EB0004946FCF709FB70E73A4B9F420AD1002DB7
:103EC00008DB4046494613B0BDE8F04F00F00ABD9C
:103ED000002300934046494600F058FC83468C4638
:103EE000BAF1000F28D124B12C4B25F040429A4260
:103EF00022D1002F07DA5A46634600202749FCF7F3
:103F00000DFC83468C46002DBADA009B04F1404438
:103F100004F580141C4308D15A466346584661464E
:103F2000FCF71AF902460B4690E7009B012BA7D13C
:103F30000CF100439C46A3E7EB0F013B0C930C9A5A
:103F4000009B134304D142464B4640464946E7E7AF
:103F5000154B9E4240F3F68003F104739E42104BD2
:103F600009DD9C420CDC002F0CDA002013B0BDE808
:103F7000F04F00F0B2BC9C42F5DB084B9C4215DDD3
:103F8000002FF2DC002013B0BDE8F04F00F0A0BC21
:103F90000000F0FF0000F07FFFFF3F430000F03F14
:103FA000FFFFEF3F0000E03F0000E04161460022DC
:103FB00058465F4BFCF7D0F855A3D3E900230446DD
:103FC0000D46FCF781FA54A3D3E9002306460F46B9
:103FD00020462946FCF778FA002282468B46204686
:103FE0002946544BFCF770FA02460B464CA1D1E926
:103FF0000001FCF7B1F822462B46FCF765FA0246B1
:104000000B4600204C49FCF7A7F822462B46804679
:10401000894620462946FCF757FA02460B46404699
:104020004946FCF751FA40A3D3E90023FCF74CFAC8
:1040300002460B4650465946FCF78EF802460B46A0
:1040400004460D4630463946FCF788F800203246D3
:104050003B4682468B46FCF77FF802460B462046DD
:104060002946FCF779F8DDE90267009B0C9A013BD1
:1040700013434FF000064FF000020CBF2F4B2C4BA8
:1040800004460D46DDE90201CDE9002332463B46F8
:10409000FCF762F852465B46FCF716FADDE90223AC
:1040A0008046894620462946FCF70EFA02460B4612
:1040B00040464946FCF752F832463B468046894620
:1040C00050465946FCF700FA04460D460B46024698
:1040D00049464046CDE90245FCF740F8184B824678
:1040E00099420F460E4640F3E78201F13F4303F544
:1040F000E003034300F0E281DDE900010022002338
:10410000FCF754FC003818BF01202FE7AFF3008004
:10411000000000604715F73F44DF5DF80BAE543EEA
:10412000555555555555D53FFE822B654715F73FDB
:104130000000F03F0000D03F0000E03F0000F0BF73
:10414000FFFF8F40D44B00222B4043B958466146B5
:10415000D24BFCF7B9F96FF0340283460C462315B5
:10416000A3F2FF3313440B93CD4BC4F3130444F079
:104170007F559C4245F4401508DDCA4B9C4240F3F4
:1041800064810B9BA5F5801501330B930026F3008A
:104190000D93C54B584603EBC603D3E900342946BB
:1041A0001A46CDE908342346FBF7D6FFDA462B46FC
:1041B0005246CDE90E01DDE90801FBF7CFFF0246CB
:1041C0000B460020B949FCF7A9FA02460B46CDE997
:1041D0001001DDE90E01FCF777F9CDE90601DDE913
:1041E0000634CDE9043400230022AB466D1045F0BF
:1041F0000055049305F50025DDE9048905EB8643A8
:104200004046494614461D46FCF75EF902460B46F9
:10421000DDE90E01FBF7A0FFDDE9082306460F46A6
:1042200020462946FBF798FF02460B465046594662
:10423000FBF792FF42464B46FCF746F902460B4617
:1042400030463946FBF788FFDDE91023FCF73CF9DF
:10425000DDE9062382468B4610461946FCF734F901
:104260007BA3D3E9002304460D46FCF72DF97AA37E
:10427000D3E90023FBF772FF22462B46FCF724F913
:1042800077A3D3E90023FBF769FF22462B46FCF70F
:104290001BF975A3D3E90023FBF760FF22462B46E9
:1042A000FCF712F972A3D3E90023FBF757FF22466C
:1042B0002B46FCF709F970A3D3E90023FBF74EFF67
:1042C000224606460F462B4620462946FCF7FCF8B8
:1042D00002460B4630463946FCF7F6F804460D46D2
:1042E000DDE9060142464B46FBF738FF52465B4686
:1042F000FCF7EAF822462B46FBF730FF424606461B
:104300000F464B4640464946FCF7DEF802460B4650
:10431000CDE908230022664BFBF720FF32463B46DF
:10432000FBF71CFF00240D4622460B46404649463B
:10433000FCF7CAF8002280468946204629465C4B95
:10434000FBF70AFFDDE90823FBF706FF02460B46F1
:1043500030463946FBF700FFDDE90623FCF7B4F8E9
:10436000224606460F462B4650465946FCF7ACF807
:1043700002460B4630463946FBF7F0FE002406465F
:104380000F4602460B4640464946FBF7E7FE3CA374
:10439000D3E9002320460D46FCF796F842464B46EB
:1043A000CDE9060120462946FBF7D6FE02460B461C
:1043B00030463946FBF7D0FE33A3D3E90023FCF7A0
:1043C00083F833A3D3E9002306460F462046294647
:1043D000FCF77AF802460B4630463946FBF7BEFE3C
:1043E0000D9A344B1344D3E90023FBF7B7FE804604
:1043F0000B988946FBF7FEFF04460D46DDE90601F2
:104400000D9A2D4B1344D3E9006742464B46FBF708
:10441000A5FE32463B46FBF7A1FE22462B46FBF7A4
:104420009DFE002022462B4682468B46FBF794FEDB
:1044300032463B46FBF790FEDDE90623FBF78CFE98
:1044400002460B46404649460BE601269FE600BF62
:10445000EF4E454A287ECA3F65DBC9934A86CD3F69
:1044600001411DA96074D13F4D268F515555D53F4F
:10447000FFAB6FDBB66DDB3F033333333333E33FE7
:10448000000000E009C7EE3FFD033ADC09C7EE3F3C
:10449000F5015B14E02F3EBE0000F07F00004043BA
:1044A0008E98030079B60B00E04A00080000F03F48
:1044B00000000840004B0008F04A00089CA3D3E924
:1044C000002340464946FBF749FE2246CDE9040158
:1044D0002B4650463946FBF73FFE02460B46DDE9C8
:1044E0000401FCF781FA00287FF406AEA24A26F008
:1044F0000043934240F300814FF4801A1B15A3F24E
:10450000FE334AFA03FAB244CAF30A519B48A1F2B5
:10451000FF31084100EA0A03CAF3130AC1F114018A
:104520004AF4801A4AFA01FA002E4FF0000220469F
:104530002946B8BFCAF1000AFBF70EFECDE9020119
:10454000DDE90201002442464B46FBF707FE7AA351
:10455000D3E9002320460D46FBF7B6FFDDE9022331
:1045600006460F4620462946FBF7F6FD02460B4657
:1045700040464946FBF7F0FD71A3D3E90023FBF762
:10458000A3FF71A3D3E9002380468946204629462C
:10459000FBF79AFF02460B4640464946FBF7DEFD15
:1045A00004460D4602460B4630463946FBF7D6FD1B
:1045B00032463B4680468946FBF7CEFD02460B4617
:1045C00020462946FBF7C8FD424606460F464B46A5
:1045D00040464946FBF778FF5DA3D3E90023044634
:1045E0000D46FBF771FF5CA3D3E90023FBF7B4FD95
:1045F00022462B46FBF768FF59A3D3E90023FBF7BC
:10460000ADFD22462B46FBF75FFF57A3D3E90023FE
:10461000FBF7A2FD22462B46FBF756FF54A3D3E936
:104620000023FBF79BFD22462B46FBF74DFF02467E
:104630000B4640464946FBF78FFD04460D460246B1
:104640000B4640464946FBF73FFF0022CDE90201F9
:104650004FF0804320462946FBF77EFD02460B467D
:10466000DDE90201FCF75AF8324604460D463B46A6
:1046700040464946FBF728FF32463B46FBF76EFDB6
:1046800002460B4620462946FBF766FD42464B464E
:10469000FBF762FD02460B4600203949FBF75CFD43
:1046A00001EB0A54B4F5801F29DA524600F074F881
:1046B000DDE90023FFF7FDBB324B21F000479F42AD
:1046C0007FF714AF304B0B44034309D0DDE9000101
:1046D00000220023FCF76AF9003818BF012052E4D9
:1046E00022462B46FBF738FD42464B46FCF772F953
:1046F00000283FF4FBAEE9E74FF0000A20E721462F
:10470000D6E74FF0000BDFF878C0FFF7B9BB4FF0EA
:10471000000B4FF0000CFFF7B3BB40464946FFF7D4
:104720003CBB0092FFF788BB0023FFF772BB00BFC2
:10473000FE822B654715973C00000000432EE63FA4
:10474000EF39FAFE422EE63F396CA80C615C20BEC0
:10475000D0A4BE726937663EF16BD2C541BDBB3E87
:104760002CDE25AF6A56113F93BDBE166CC1663F65
:104770003E5555555555C53F0000E03F0000F0FF40
:104780000000F03FFFCB904000346F3F21F000432A
:104790001946704700000000F8B51646C1F30A52EA
:1047A00004460D460B4692B921F0004303433CD02A
:1047B000314B0022FBF788FE304B04469E420D46EB
:1047C0000FDA29A3D3E90023FBF77EFE06E040F2CF
:1047D000FF77BA4209D10246FBF7C0FC04460D46FA
:1047E00023E00B46C1F30A52363A4CF250318E4266
:1047F0000EDD1FA3D3E9002305F0004444F0FC4183
:1048000041F45F1141F410511D4841F03C01DBE7D8
:1048100040F2FE7132448A42EBDC002A08DD23F0CC
:10482000FF4323F4E00343EA025520462946F8BD3E
:1048300012F1350F0CDA0CA3D3E9002305F0004484
:1048400044F0D27141F4B7310E4841F01F01BBE78B
:1048500023F0FF43363223F4E00343EA02552046B7
:1048600029460022084BAFE759F3F8C21F6EA50195
:104870009C7500883CE4377E00005043B03CFFFF4D
:104880009C75008859F3F8C20000903C70B504464E
:104890000D461646FFF7CAF929460660204670BD48
:1048A00037B515461C4680B1104603F10041CDE9ED
:1048B0000001DDE9002328462146FBF705FE222200
:1048C00003B0BDE83040FFF7E1BF10461946EEE700
:1048D00000224FF08053FFF7E3BF00224FF0E04388
:1048E000FFF7DEBFDFF8A0C12DE9F84F3CEA010C6D
:1048F0000B4606460D460A4604460ED10246FBF715
:10490000E3FD02460B4630462946FBF727FC0646E8
:104910000D4630462946BDE8F88F00290DDC21F010
:10492000004C5CEA000CF4D039B10246FBF714FCF1
:1049300002460B46FBF7F2FEE9E7121500F089800C
:104940000025C3F31303A2F2FF3643F48013D2070A
:104950005CBF5B0003EBD4734FEA430358BF6400B2
:1049600003EBD4736200162029464FF4001476102E
:104970000F199F42DEBFDB1B39192D195B0001386F
:1049800003EBD2734FEA54044FEA4202F0D10446DB
:1049900020274FF0004C8B420CEB000E02DC13D1B1
:1049A000964511D8BEF1000F0EEB0C0056DA002828
:1049B00054DB01F101085B1A4146964588BF03F1BB
:1049C000FF33A2EB0E0264445B00013F03EBD273A2
:1049D0004FEA5C0C4FEA4202DDD113431BD0DFF8F3
:1049E000ACA0DFF8ACB0DAE90001DBE90023FBF7AB
:1049F000B3FBDAE9008902460B4640464946FBF71D
:104A0000DFFF40B1DAE90001DBE90023B4F1FF3F49
:104A100026D13C4601356B10640803F17F53EA0749
:104A200003F5001348BF44F00044204603EB065151
:104A30006DE7E30A15396405002BFAD0D8020AD5D0
:104A4000C2F1200024FA00F0551E944003434A1B93
:104A500076E71146F0E75B000132EFE78846AAE708
:104A6000FBF77CFBDAE9008902460B4640464946E3
:104A7000FBF79CFF20B1A11C08BF01350234CAE737
:104A8000013424F00104C6E70000F07F600000203C
:104A900068000020F8B500BFF8BC08BC9E4670470F
:0C4AA000F8B500BFF8BC08BC9E4670478B
:104AB00000000000000000000102030406070809CE
:104AC00000000000010203040203040506070809B0
:104AD0000A0B0C0D0E0F1010010200000000000068
:104AE000000000000000F03F000000000000F83F60
:104AF00000000000000000000000004003B8E23F9A
:104B0000000000000000000006D0CF43EBFD4C3E4B
:044B10003501000863
:044B14001101000883
:104B18000024F40010000000010000000000000064
:104B2800E802002050030020B80300200000000025
:104B3800000000000000000000000000000000006D
:104B4800000000000000000000000000000000005D
:104B5800000000000000000000000000000000004D
:104B680000000000000000000C0000200000000011
:104B7800000000000000F03F59F3F8C21F6EA501C5
:0400000508000EB928
:00000001FF
