:020000040800F2
:1000000000500020611B0008F9180008FF180008C4
:10001000051900080B19000811190008000000005C
:100020000000000000000000000000001719000898
:1000300023190008000000002F1900083B190008D0
:10004000A91B0008A91B0008A91B0008A91B000880
:10005000A91B0008A91B0008A91B000847190008D4
:10006000A91B0008A91B0008A91B0008A91B000860
:10007000A91B0008A91B0008A91B0008A91B000850
:10008000A91B0008A91B0008A91B0008A91B000840
:10009000A91B0008A91B0008A91B00085519000886
:1000A000A91B000871190008A91B0008A91B00085A
:1000B0008519000899190008AD190008A91B000846
:1000C000A91B0008A91B0008A91B0008A91B000800
:1000D000A91B0008A91B0008C1190008A91B0008DA
:1000E000A91B0008A91B0008A91B000800000000AC
:1000F0000000000000000000000000000000000000
:0C01000000000000000000005FF808F1A3
:1001100010B5054C237833B9044B13B10448AFF341
:1001200000800123237010BD140200200000000095
:1001300030A4000808B5034B1BB103490348AFF3D3
:10014000008008BD000000001802002030A4000854
:10015000034613F8012B002AFBD1181A0138704707
:1001600081F0004102E000BF83F0004330B54FEA68
:1001700041044FEA430594EA050F08BF90EA020FD5
:100180001FBF54EA000C55EA020C7FEA645C7FEA68
:10019000655C00F0E2804FEA5454D4EB5555B8BF8B
:1001A0006D420CDD2C4480EA020281EA030382EAFC
:1001B000000083EA010180EA020281EA0303362D8E
:1001C00088BF30BD11F0004F4FEA01314FF4801C61
:1001D0004CEA113102D0404261EB410113F0004F73
:1001E0004FEA03334CEA133302D0524263EB43032A
:1001F00094EA050F00F0A780A4F10104D5F1200EC8
:100200000DDB02FA0EFC22FA05F2801841F1000122
:1002100003FA0EF2801843FA05F359410EE0A5F1F6
:1002200020050EF1200E012A03FA0EFC28BF4CF027
:10023000020C43FA05F3C01851EBE37101F00045DD
:1002400007D54FF0000EDCF1000C7EEB00006EEBEA
:100250000101B1F5801F1BD3B1F5001F0CD3490874
:100260005FEA30004FEA3C0C04F101044FEA4452CB
:1002700012F5800F80F09A80BCF1004F08BF5FEA52
:10028000500C50F1000041EB045141EA050130BD32
:100290005FEA4C0C404141EB0101013C28BFB1F544
:1002A000801FE9D291F0000F04BF01460020B1FA8F
:1002B00081F308BF2033A3F10B03B3F120020CDA62
:1002C0000C3208DD02F1140CC2F10C0201FA0CF040
:1002D00021FA02F10CE002F11402D8BFC2F1200CA5
:1002E00001FA02F120FA0CFCDCBF41EA0C0190405B
:1002F000E41AA2BF01EB0451294330BD6FEA0404A4
:100300001F3C1CDA0C340EDC04F11404C4F120028E
:1003100020FA04F001FA02F340EA030021FA04F3A0
:1003200045EA030130BDC4F10C04C4F1200220FAF7
:1003300002F001FA04F340EA0300294630BD21FA35
:1003400004F0294630BD94F0000F83F4801306BFFB
:1003500081F480110134013D4EE77FEA645C18BFEF
:100360007FEA655C29D094EA050F08BF90EA020F86
:1003700005D054EA000C04BF1946104630BD91EA7E
:10038000030F1EBF0021002030BD5FEA545C05D181
:100390004000494128BF41F0004130BD14F58004C0
:1003A0003CBF01F5801130BD01F0004545F0FE4134
:1003B00041F470014FF0000030BD7FEA645C1ABF69
:1003C000194610467FEA655C1CBF0B46024650EAA0
:1003D000013406BF52EA033591EA030F41F40021CC
:1003E00030BD00BF90F0000F04BF0021704730B552
:1003F0004FF4806404F132044FF000054FF0000127
:1004000050E700BF90F0000F04BF0021704730B5E7
:100410004FF4806404F1320410F0004548BF4042BC
:100420004FF000013EE700BF42004FEAE2014FEA11
:1004300031014FEA02701FBF12F07F4393F07F4FEC
:1004400081F06051704732F07F4208BF704793F0EF
:100450007F4F04BF41F40021704730B54FF4607402
:1004600001F0004521F000411CE700BF50EA010205
:1004700008BF704730B54FF000050AE050EA0102AE
:1004800008BF704730B511F0004502D5404261EB1E
:1004900041014FF4806404F132045FEA915C3FF45F
:1004A000D8AE4FF003025FEADC0C18BF03325FEAFC
:1004B000DC0C18BF033202EBDC02C2F1200300FAAD
:1004C00003FC20FA02F001FA03FE40EA0E0021FAD2
:1004D00002F11444BDE600BF70B54FF0FF0C4CF4C0
:1004E000E06C1CEA11541DBF1CEA135594EA0C0F72
:1004F00095EA0C0F00F0DEF82C4481EA030621EAAD
:100500004C5123EA4C5350EA013518BF52EA0335E7
:1005100041F4801143F4801338D0A0FB02CE4FF099
:100520000005E1FB02E506F00042E0FB03E54FF0C9
:100530000006E1FB03569CF0000F18BF4EF0010EC1
:10054000A4F1FF04B6F5007F64F5407404D25FEABD
:100550004E0E6D4146EB060642EAC62141EA555170
:100560004FEAC52040EA5E504FEACE2EB4F1FD0CB2
:1005700088BFBCF5E06F1ED8BEF1004F08BF5FEA30
:10058000500E50F1000041EB045170BD06F00046E2
:1005900046EA010140EA020081EA0301B4EB5C048F
:1005A000C2BFD4EB0C0541EA045170BD41F4801187
:1005B0004FF0000E013C00F3AB8014F1360FDEBFAC
:1005C000002001F0004170BDC4F10004203C35DA88
:1005D0000C341BDC04F11404C4F1200500FA05F30B
:1005E00020FA04F001FA05F240EA020001F00042AC
:1005F00021F0004110EBD37021FA04F642EB060122
:100600005EEA430E08BF20EAD37070BDC4F10C044B
:10061000C4F1200500FA04F320FA05F001FA04F20F
:1006200040EA020001F0004110EBD37041F10001FB
:100630005EEA430E08BF20EAD37070BDC4F1200506
:1006400000FA05F24EEA020E20FA04F301FA05F26E
:1006500043EA020321FA04F001F0004121FA04F216
:1006600020EA020000EBD3705EEA430E08BF20EAE6
:10067000D37070BD94F0000F0FD101F00046400020
:1006800041EB010111F4801F08BF013CF7D041EAA2
:10069000060195F0000F18BF704703F000465200A6
:1006A00043EB030313F4801F08BF013DF7D043EA77
:1006B0000603704794EA0C0F0CEA135518BF95EA2D
:1006C0000C0F0CD050EA410618BF52EA4306D1D1B4
:1006D00081EA030101F000414FF0000070BD50EAD3
:1006E000410606BF1046194652EA430619D094EA5D
:1006F0000C0F02D150EA013613D195EA0C0F05D147
:1007000052EA03361CBF104619460AD181EA03019A
:1007100001F0004141F0FE4141F470014FF0000052
:1007200070BD41F0FE4141F4780170BD70B54FF0ED
:10073000FF0C4CF4E06C1CEA11541DBF1CEA13556D
:1007400094EA0C0F95EA0C0F00F0A7F8A4EB05044F
:1007500081EA030E52EA03354FEA013100F0888046
:100760004FEA03334FF0805545EA131343EA12630F
:100770004FEA022245EA111545EA10654FEA0026C4
:100780000EF000419D4208BF964244F1FD0404F57D
:10079000407402D25B084FEA3202B61A65EB0305D9
:1007A0005B084FEA32024FF480104FF4002CB6EB96
:1007B000020E75EB030E22BFB61A754640EA0C0016
:1007C0005B084FEA3202B6EB020E75EB030E22BF56
:1007D000B61A754640EA5C005B084FEA3202B6EB97
:1007E000020E75EB030E22BFB61A754640EA9C0056
:1007F0005B084FEA3202B6EB020E75EB030E22BF26
:10080000B61A754640EADC0055EA060E18D04FEAE3
:10081000051545EA16754FEA06164FEAC30343EA83
:1008200052734FEAC2025FEA1C1CC0D111F4801F50
:100830000BD141EA00014FF000004FF0004CB6E749
:1008400011F4801F04BF01430020B4F1FD0C88BFE8
:10085000BCF5E06F3FF6AFAEB5EB030C04BFB6EBF3
:10086000020C5FEA500C50F1000041EB045170BDE6
:100870000EF0004E4EEA113114EB5C04C2BFD4EB13
:100880000C0541EA045170BD41F480114FF0000E97
:10089000013C90E645EA060E8DE60CEA135594EA13
:1008A0000C0F08BF95EA0C0F3FF43BAF94EA0C0F16
:1008B0000AD150EA01347FF434AF95EA0C0F7FF48B
:1008C00025AF104619462CE795EA0C0F06D152EADF
:1008D00003353FF4FDAE1046194622E750EA4106C3
:1008E00018BF52EA43067FF4C5AE50EA41047FF4D4
:1008F0000DAF52EA43057FF4EBAE12E74FF0FF3C39
:1009000006E000BF4FF0010C02E000BF4FF0010C09
:100910004DF804CD4FEA410C7FEA6C5C4FEA430C82
:1009200018BF7FEA6C5C1BD001B050EA410C0CBFD1
:1009300052EA430C91EA030F02BF90EA020F002033
:10094000704710F1000F91EA030F58BF994208BF9A
:1009500090422CBFD8176FEAE37040F00100704757
:100960004FEA410C7FEA6C5C02D150EA013C07D1AE
:100970004FEA430C7FEA6C5CD6D152EA033CD3D0F9
:100980005DF8040B704700BF8446104662468C46F3
:100990001946634600E000BF01B5FFF7B7FF002826
:1009A00048BF10F1000F01BD4DF808EDFFF7F4FF4F
:1009B0000CBF012000205DF808FB00BF4DF808EDDA
:1009C000FFF7EAFF34BF012000205DF808FB00BFFD
:1009D0004DF808EDFFF7E0FF94BF012000205DF81F
:1009E00008FB00BF4DF808EDFFF7CEFF94BF0120D4
:1009F00000205DF808FB00BF4DF808EDFFF7C4FFCD
:100A000034BF012000205DF808FB00BF4FEA410C15
:100A10007FEA6C5C02D150EA013C0AD14FEA430CF8
:100A20007FEA6C5C02D152EA033C02D14FF0000035
:100A300070474FF0010070474FEA410212F5001273
:100A400015D211D56FF47873B3EB625212D94FEA15
:100A5000C12343F0004343EA505311F0004F23FAFF
:100A600002F018BF404270474FF00000704750EA54
:100A7000013005D111F0004008BF6FF00040704711
:100A80004FF00000704700BF4A0011D212F500126B
:100A900011D20DD56FF47873B3EB62520ED44FEAD6
:100AA000C12343F0004343EA505323FA02F0704756
:100AB0004FF00000704750EA013002D14FF0FF3094
:100AC00070474FF0000070474FEA4102B2F1E04337
:100AD00024BFB3F5001CDCF1FE5C0DD901F0004C25
:100AE0004FEAC0024CEA5070B2F1004F40EB830075
:100AF00008BF20F00100704711F0804F21D113F1A1
:100B00003872BCBF01F00040704741F480114FEAD9
:100B10005252C2F11802C2F1200C10FA0CF320FA62
:100B200002F018BF40F001004FEAC1234FEAD3237F
:100B300003FA0CFC40EA0C0023FA02F34FEA4303E9
:100B4000CCE77FEA625307D150EA01331EBF4FF072
:100B5000FE4040F44000704701F0004040F0FE408D
:100B600040F40000704700BF80F0004002E000BF8A
:100B700081F0004142001FBF5FEA410392EA030F88
:100B80007FEA226C7FEA236C6AD04FEA1262D2EBD2
:100B90001363C1BFD218414048404140B8BF5B42D7
:100BA000192B88BF704710F0004F40F4000020F070
:100BB0007F4018BF404211F0004F41F4000121F086
:100BC0007F4118BF494292EA030F3FD0A2F10102D0
:100BD00041FA03FC10EB0C00C3F1200301FA03F10E
:100BE00000F0004302D5494260EB4000B0F5000F31
:100BF00013D3B0F1807F06D340084FEA310102F1F0
:100C00000102FE2A51D2B1F1004F40EBC25008BFA1
:100C100020F0010040EA03007047490040EB00006B
:100C2000013A28BFB0F5000FEDD2B0FA80FCACF16C
:100C3000080CB2EB0C0200FA0CF0AABF00EBC25099
:100C400052421843BCBFD0401843704792F0000F87
:100C500081F4000106BF80F400000132013BB5E7DA
:100C60004FEA41037FEA226C18BF7FEA236C21D050
:100C700092EA030F04D092F0000F08BF08467047B5
:100C800090EA010F1CBF0020704712F07F4F04D183
:100C9000400028BF40F00040704712F100723CBF96
:100CA00000F50000704700F0004343F0FE4040F4C0
:100CB000000070477FEA226216BF08467FEA23637E
:100CC0000146420206BF5FEA412390EA010F40F469
:100CD000800070474FF0000304E000BF10F00043B5
:100CE00048BF40425FEA000C08BF704743F096439C
:100CF00001464FF000001CE050EA010208BF7047B7
:100D00004FF000030AE000BF50EA010208BF70473D
:100D100011F0004302D5404261EB41015FEA010C52
:100D200002BF84460146002043F0B64308BFA3F14A
:100D30008053A3F50003BCFA8CF2083AA3EBC2532C
:100D400010DB01FA02FC634400FA02FCC2F120024B
:100D5000BCF1004F20FA02F243EB020008BF20F082
:100D60000100704702F1200201FA02FCC2F12002E8
:100D700050EA4C0021FA02F243EB020008BF20EADD
:100D8000DC7070474FF0FF0C1CEAD0521EBF1CEA0B
:100D9000D15392EA0C0F93EA0C0F6FD01A4480EAF9
:100DA000010C400218BF5FEA41211ED04FF00063E2
:100DB00043EA501043EA5111A0FB01310CF000400E
:100DC000B1F5000F3EBF490041EAD3715B0040EA34
:100DD000010062F17F02FD2A1DD8B3F1004F40EB04
:100DE000C25008BF20F00100704790F0000F0CF0D7
:100DF000004C08BF49024CEA502040EA51207F3A9B
:100E0000C2BFD2F1FF0340EAC250704740F4000075
:100E10004FF00003013A5DDC12F1190FDCBF00F066
:100E200000407047C2F10002410021FA02F1C2F114
:100E3000200200FA02FC5FEA310040F1000053EAB0
:100E40004C0308BF20EADC70704792F0000F00F0FE
:100E5000004C02BF400010F4000F013AF9D040EA04
:100E60000C0093F0000F01F0004C02BF490011F498
:100E7000000F013BF9D041EA0C018FE70CEAD15396
:100E800092EA0C0F18BF93EA0C0F0AD030F0004C16
:100E900018BF31F0004CD8D180EA010000F00040CA
:100EA000704790F0000F17BF90F0004F084691F088
:100EB000000F91F0004F14D092EA0C0F01D14202C2
:100EC0000FD193EA0C0F03D14B0218BF084608D18B
:100ED00080EA010000F0004040F0FE4040F40000D5
:100EE000704740F0FE4040F4400070474FF0FF0C68
:100EF0001CEAD0521EBF1CEAD15392EA0C0F93EAAF
:100F00000C0F69D0A2EB030280EA010C49024FEA00
:100F1000402037D04FF0805343EA111143EA1013B9
:100F20000CF000408B4238BF5B0042F17D024FF471
:100F3000000C8B4224BF5B1A40EA0C00B3EB510F4C
:100F400024BFA3EB510340EA5C00B3EB910F24BF35
:100F5000A3EB910340EA9C00B3EBD10F24BFA3EBBA
:100F6000D10340EADC001B0118BF5FEA1C1CE0D182
:100F7000FD2A3FF650AF8B4240EBC25008BF20F035
:100F8000010070470CF0004C4CEA50207F32C2BF89
:100F9000D2F1FF0340EAC250704740F400004FF026
:100FA0000003013A37E792F0000F00F0004C02BF57
:100FB000400010F4000F013AF9D040EA0C0093F021
:100FC000000F01F0004C02BF490011F4000F013B7B
:100FD000F9D041EA0C0195E70CEAD15392EA0C0FE3
:100FE00008D142027FF47DAF93EA0C0F7FF470AF1B
:100FF000084676E793EA0C0F04D14B023FF44CAF5E
:1010000008466EE730F0004C18BF31F0004CCAD1F2
:1010100030F000427FF45CAF31F000437FF43CAF2E
:101020005FE700BF4FF0FF3C06E000BF4FF0010C50
:1010300002E000BF4FF0010C4DF804CD4FEA400232
:101040004FEA41037FEA226C18BF7FEA236C11D07C
:1010500001B052EA530C18BF90EA010F58BFB2EB2F
:10106000030088BFC81738BF6FEAE17018BF40F0AF
:10107000010070477FEA226C02D15FEA402C05D163
:101080007FEA236CE4D15FEA412CE1D05DF8040BE8
:10109000704700BF844608466146FFE70FB5FFF77B
:1010A000C9FF002848BF10F1000F0FBD4DF808ED33
:1010B000FFF7F4FF0CBF012000205DF808FB00BF24
:1010C0004DF808EDFFF7EAFF34BF012000205DF87E
:1010D00008FB00BF4DF808EDFFF7E0FF94BF0120CB
:1010E00000205DF808FB00BF4DF808EDFFF7D2FFC8
:1010F00094BF012000205DF808FB00BF4DF808ED0B
:10110000FFF7C8FF34BF012000205DF808FB00BFD7
:101110004FEA4002B2F1FE4F0FD34FF09E03B3EB04
:1011200012620DD94FEA002343F0004310F0004F44
:1011300023FA02F018BF404270474FF0000070479A
:1011400012F1610F01D1420205D110F0004008BF39
:101150006FF0004070474FF00000704742000ED221
:10116000B2F1FE4F0BD34FF09E03B3EB126209D4E2
:101170004FEA002343F0004323FA02F070474FF098
:101180000000704712F1610F01D1420202D14FF00D
:10119000FF3070474FF00000704700BF38B505467C
:1011A0000C460022002328462146FFF707FC28B9F9
:1011B00028462146BDE8384000F00AB8284604F128
:1011C000004100F005F8404261EB410138BD00BF2D
:1011D000D0B500220B4B06460F46FFF77DF9FFF70F
:1011E00053FC0446FFF7FEF80022074BFFF774F9A3
:1011F00002460B4630463946FEF7B6FFFFF744FC81
:101200002146D0BD0000F03D0000F04180B500AFA8
:1012100000F0CCFC00F025F800F0CCF900F0B8F8B4
:1012200000F002F900F04EF900F09AF900F05EF8D3
:1012300003F0A6F803F054F803F06CF803F086F915
:1012400003F0B0F803F0EAF803F058FB03F006F9F6
:1012500003F028F903F08AF903F0A2F903F010F97A
:10126000E8E780B590B000AF07F11803282200210D
:10127000184604F071F83B1D00221A605A609A600B
:10128000DA601A610123BB614FF48033FB610023F4
:101290003B620123BB6202237B634FF48033BB6359
:1012A0004FF4E013FB6307F11803184601F08CF8C4
:1012B0000346002B01D000F02DFA0F237B600223A0
:1012C000BB600023FB604FF480633B6100237B61C4
:1012D0003B1D0221184601F0F9FA0346002B01D00C
:1012E00000F018FA00BF4037BD4680BD80B586B01B
:1012F00000AF07F1080300221A605A609A60DA60B2
:101300003B4600221A605A601F4B204A1A601E4B4F
:1013100041F61F425A601C4B00229A601A4B44F659
:101320001F62DA60184B00221A61174B00225A61C3
:10133000154B80229A61144801F056FC0346002B9D
:1013400001D000F0E7F94FF48053BB6007F10803C8
:1013500019460D4801F020FE0346002B01D000F095
:10136000D9F900233B6000237B603B4619460648C1
:1013700001F0F6FF0346002B01D000F0CBF900BFCF
:101380001837BD4680BD00BF30020020002C014050
:1013900080B586B000AF07F1080300221A605A60DA
:1013A0009A60DA603B4600221A605A601D4B4FF08B
:1013B00080421A601B4B4FF434725A60194B002262
:1013C0009A60184B4722DA60164B00221A61154BBF
:1013D00080229A61134801F007FC0346002B01D0DC
:1013E00000F098F94FF48053BB6007F108031946E9
:1013F0000C4801F0D1FD0346002B01D000F08AF922
:1014000000233B6000237B603B461946054801F002
:10141000A7FF0346002B01D000F07CF900BF18376E
:10142000BD4680BD7802002080B586B000AF07F1D0
:10143000080300221A605A609A60DA603B46002274
:101440001A605A601D4B1E4A1A601C4B4FF43472CE
:101450005A601A4B00229A60184B4722DA60174BE9
:1014600000221A61154B80229A61144801F0BCFBDE
:101470000346002B01D000F04DF94FF48053BB60C0
:1014800007F1080319460D4801F086FD0346002BBD
:1014900001D000F03FF900233B6000237B603B4616
:1014A0001946064801F05CFF0346002B01D000F00E
:1014B00031F900BF1837BD4680BD00BFC002002013
:1014C0000004004080B586B000AF07F10803002299
:1014D0001A605A609A60DA603B4600221A605A60CD
:1014E0001D4B1E4A1A601C4B4FF434725A601A4B43
:1014F00000229A60184B4FF6FF72DA60164B0022FA
:101500001A61154B80229A61134801F06DFB034666
:10151000002B01D000F0FEF84FF48053BB6007F1C0
:10152000080319460C4801F037FD0346002B01D093
:1015300000F0F0F800233B6000237B603B46194637
:10154000054801F00DFF0346002B01D000F0E2F842
:1015500000BF1837BD4680BD0803002000080040CA
:1015600080B500AF114B124A1A60104B4FF4E132B4
:101570005A600E4B00229A600C4B0022DA600B4B33
:1015800000221A61094B0C225A61084B00229A6111
:10159000064B0022DA61054801F052FF0346002B9A
:1015A00001D000F0B7F800BF80BD00BF500300209D
:1015B0000044004080B588B000AF07F1100300225E
:1015C0001A605A609A60DA604D4B9B694C4A43F04E
:1015D000100393614A4B9B6903F01003FB60FB68A7
:1015E000474B9B69464A43F020039361444B9B69F8
:1015F00003F02003BB60BB68414B9B69404A43F04A
:10160000040393613E4B9B6903F004037B607B689A
:101610003B4B9B693A4A43F008039361384B9B6903
:1016200003F008033B603B6800224FF4005135484B
:1016300000F09AFE002248F2E031334800F094FEB8
:1016400000224FF4F851314800F08EFE4FF4005361
:101650003B6101237B610023BB610223FB6107F136
:1016600010031946274800F0FBFCE0233B61284BA0
:101670007B610123BB6107F110031946234800F089
:10168000EFFC02233B61224B7B610123BB6107F12D
:10169000100319461C4800F0E3FC48F2E0333B61BC
:1016A00001237B610023BB610223FB6107F110036F
:1016B0001946154800F0D4FC4FF4F8533B61012360
:1016C0007B610023BB610223FB6107F11003194614
:1016D0000E4800F0C5FC00220021072000F0BDFBF1
:1016E000072000F0D6FB00220021172000F0B5FBF8
:1016F000172000F0CEFB00BF2037BD4680BD00BFE5
:101700000010024000100140000C014000080140A0
:101710000000211080B400AF72B600BFFEE70000E9
:1017200080B483B000AF0E4B9B690D4A43F00103B8
:1017300093610B4B9B6903F001037B607B68084B53
:10174000DB69074A43F08053D361054BDB6903F043
:1017500080533B603B6800BF0C37BD4680BC704780
:101760000010024080B586B000AF78607B681B68CF
:10177000344A934214D1344B9B69334A43F4006397
:101780009361314B9B6903F400637B617B690022A9
:101790000021192000F061FB192000F07AFB4CE0D9
:1017A0007B681B68B3F1804F14D1274BDB69264A55
:1017B00043F00103D361244BDB6903F001033B6178
:1017C0003B69002200211C2000F047FB1C2000F098
:1017D00060FB32E07B681B681C4A934214D11A4BB1
:1017E000DB69194A43F00203D361174BDB6903F04D
:1017F0000203FB60FB68002200211D2000F02DFB8E
:101800001D2000F046FB18E07B681B68104A9342DD
:1018100013D10D4BDB690C4A43F00403D3610A4B2F
:10182000DB6903F00403BB60BB68002200211E20BB
:1018300000F013FB1E2000F02CFB00BF1837BD4644
:1018400080BD00BF002C0140001002400004004099
:101850000008004080B588B000AF786007F1100341
:1018600000221A605A609A60DA607B681B681F4A1F
:10187000934237D11E4BDB691D4A43F40033D361D9
:101880001B4BDB6903F40033FB60FB68184B9B695F
:10189000174A43F004039361154B9B6903F004035B
:1018A000BB60BB6804233B6102237B610323FB61B4
:1018B00007F1100319460F4800F0D2FB08233B61E3
:1018C00000237B610023BB6107F11003194609481F
:1018D00000F0C6FB00220021262000F0BEFA2620E0
:1018E00000F0D7FA00BF2037BD4680BD004400405D
:1018F000001002400008014080B400AFFEE780B451
:1019000000AFFEE780B400AFFEE780B400AFFEE7B3
:1019100080B400AFFEE780B400AF00BFBD4680BC1E
:10192000704780B400AF00BFBD4680BC704780B434
:1019300000AF00BFBD4680BC704780B500AF00F06F
:101940007BF900BF80BD80B500AF022000F024FD10
:1019500000BF80BD80B500AF202000F01DFD4020FD
:1019600000F01AFD802000F017FD00BF80BD0000D0
:1019700080B500AF024801F007FA00BF80BD00BF8C
:101980003002002080B500AF024801F0FDF900BF31
:1019900080BD00BF7802002080B500AF024801F092
:1019A000F3F900BF80BD00BFC002002080B500AFCA
:1019B000024801F0E9F900BF80BD00BF0803002024
:1019C00080B500AF024801F0D7FE00BF80BD00BF68
:1019D0005003002080B400AF01231846BD4680BCF0
:1019E000704780B582B000AF7860396003F08AFC40
:1019F000034616221A604FF0FF3318460837BD46DB
:101A000080BD80B582B000AF78604FF0FF3178685C
:101A1000FFF7E7FFFEE780B586B000AFF860B9607A
:101A20007A6000237B610AE0AFF300800146BB6867
:101A30005A1CBA60CAB21A707B6901337B617A6939
:101A40007B689A42F0DB7B6818461837BD4680BD3C
:101A500080B586B000AFF860B9607A6000237B6122
:101A600009E0BB685A1CBA601B781846AFF30080C7
:101A70007B6901337B617A697B689A42F1DB7B6821
:101A800018461837BD4680BD80B483B000AF78607B
:101A90004FF0FF3318460C37BD4680BC704780B40A
:101AA00083B000AF786039603B684FF400525A60F1
:101AB000002318460C37BD4680BC704780B483B005
:101AC00000AF7860012318460C37BD4680BC7047D4
:101AD00080B485B000AFF860B9607A600023184622
:101AE0001437BD4680BC704780B586B000AF7860C3
:101AF000144A154BD31A7B617B693B61134B1B68FE
:101B0000002B02D1114B124A1A60104B1A687B68E5
:101B100013443A699A4207D203F0F4FB03460C22BD
:101B20001A604FF0FF3309E0084B1B68FB60074B5E
:101B30001A687B681344054A1360FB681846183717
:101B4000BD4680BD00500020000400009803002026
:101B5000A004002080B400AF00BFBD4680BC704729
:101B6000FFF7F8FF0B480C490C4A002302E0D45859
:101B7000C4500433C4188C42F9D3094A094C0023D9
:101B800001E013600432A242FBD303F0C1FBFFF774
:101B90003DFB704700000020140200208CA90008C3
:101BA00014020020A0040020FEE7000080B500AF72
:101BB000084B1B68074A43F010031360032000F032
:101BC00041F90F2000F008F8FFF7AAFD002318469E
:101BD00080BD00BF0020024080B582B000AF7860B9
:101BE000124B1A68124B1B7819464FF47A73B3FBE9
:101BF000F1F3B2FBF3F3184600F059F90346002B5A
:101C000001D001230EE07B680F2B0AD800227968EF
:101C10004FF0FF3000F021F9064A7B681360002383
:101C200000E0012318460837BD4680BD00000020B3
:101C3000080000200400002080B400AF054B1B7892
:101C40001A46054B1B681344034A136000BFBD4688
:101C500080BC7047080000209C03002080B400AFC7
:101C6000024B1B681846BD4680BC70479C03002091
:101C700080B485B000AF78607B6803F00703FB6039
:101C80000C4BDB68BB60BA684FF6FF031340BB60C8
:101C9000FB681A02BB68134343F0BF6343F400338D
:101CA000BB60044ABB68D36000BF1437BD4680BC2C
:101CB000704700BF00ED00E080B400AF044BDB686C
:101CC0001B0A03F007031846BD4680BC704700BFDF
:101CD00000ED00E080B483B000AF0346FB7197F9DC
:101CE0000730002B0BDBFB7903F01F02064997F945
:101CF00007305B09012000FA02F241F8232000BFFF
:101D00000C37BD4680BC704700E100E080B483B072
:101D100000AF0346FB7197F90730002B0CDBFB7912
:101D200003F01F02074997F907305B09012000FA09
:101D300002F2603341F8232000BF0C37BD4680BC5F
:101D4000704700BF00E100E080B483B000AF0346FD
:101D50003960FB7197F90730002B0ADB3B68DAB278
:101D60000C4997F907301201D2B20B4483F80023D3
:101D70000AE03B68DAB20849FB7903F00F03043B41
:101D80001201D2B20B441A7600BF0C37BD4680BC9C
:101D9000704700BF00E100E000ED00E080B489B0D2
:101DA00000AFF860B9607A60FB6803F00703FB617D
:101DB000FB69C3F10703042B28BF0423BB61FB6944
:101DC0000433062B02D9FB69033B00E000237B614F
:101DD0004FF0FF32BB6902FA03F3DA43BB681A40E3
:101DE0007B699A404FF0FF317B6901FA03F3D943D5
:101DF0007B680B40134318462437BD4680BC7047B0
:101E000080B582B000AF78607B68013BB3F1807F22
:101E100001D301230FE00A4A7B68013B53600F2185
:101E20004FF0FF30FFF790FF054B00229A60044B04
:101E300007221A60002318460837BD4680BD00BF40
:101E400010E000E080B582B000AF78607868FFF7FE
:101E50000FFF00BF0837BD4680BD80B586B000AF1C
:101E60000346B9607A60FB7300237B61FFF724FFB0
:101E700078617A68B9687869FFF790FF024697F948
:101E80000F3011461846FFF75FFF00BF1837BD46F9
:101E900080BD80B582B000AF0346FB7197F9073073
:101EA0001846FFF717FF00BF0837BD4680BD80B555
:101EB00082B000AF78607868FFF7A2FF034618464B
:101EC0000837BD4680BD80B582B000AF0346FB71C8
:101ED00097F907301846FFF719FF00BF0837BD46CE
:101EE00080BD80B485B000AF78600023FB737B6851
:101EF00093F82130DBB2022B08D07B6804229A636E
:101F00007B68002283F82020012320E07B681B6887
:101F10001A687B681B6822F00E021A607B681B68D7
:101F20001A687B681B6822F001021A607B681A6CD1
:101F30007B68DB6B012101FA02F25A607B680122A7
:101F400083F821207B68002283F82020FB7B184641
:101F50001437BD4680BC704780B584B000AF786050
:101F60000023FB737B6893F82130DBB2022B05D092
:101F70007B6804229A630123FB7351E07B681B6832
:101F80001A687B681B6822F00E021A607B681B6867
:101F90001A687B681B6822F001021A607B681B6864
:101FA000224A934229D07B681B68214A934222D05F
:101FB0007B681B681F4A93421AD07B681B681E4AC5
:101FC000934212D07B681B681C4A93420AD07B68FC
:101FD0001B681B4A934202D14FF480130EE04FF06E
:101FE00080730BE04FF4803308E04FF4805305E03A
:101FF0004FF4807302E0102300E00123114A536084
:102000007B68012283F821207B68002283F820204E
:102010007B685B6B002B03D07B685B6B78689847B1
:10202000FB7B18461037BD4680BD00BF080002404C
:102030001C000240300002404400024058000240B0
:102040006C0002400000024080B483B000AF7860B2
:102050007B689B6B18460C37BD4680BC7047000000
:1020600080B48BB000AF7860396000237B620023BE
:102070003B6269E101227B6A02FA03F3FB613B6880
:102080001B68FA691340BB61BA69FB699A4240F068
:1020900058813B685B689A4A93425ED0984A934263
:1020A00075D8984A934258D0964A93426FD8964A28
:1020B000934252D0944A934269D8944A93424CD066
:1020C000924A934263D8924A934246D0904A9342AE
:1020D0005DD8122B2AD8122B59D801A252F823F01E
:1020E0005B210008352100084721000889210008EC
:1020F0008F2100088F2100088F2100088F21000800
:102100008F2100088F2100088F2100088F210008EF
:102110008F2100088F2100088F2100088F210008DF
:102120008F2100083D21000851210008794A93427F
:1021300013D02CE03B68DB683B6229E03B68DB683E
:1021400004333B6224E03B68DB6808333B621FE0FA
:102150003B68DB680C333B621AE03B689B68002BF2
:1021600002D104233B6213E03B689B68012B05D13D
:1021700008233B627B68FA691A6109E008233B6225
:102180007B68FA695A6103E000233B6200E000BF0C
:10219000BB69FF2B01D87B6801E07B6804337B615E
:1021A000BB69FF2B02D87B6A9B0002E07B6A083B7D
:1021B0009B003B617B691A680F213B6901FA03F3BD
:1021C000DB431A40396A3B6901FA03F31A437B691E
:1021D0001A603B685B6803F08053002B00F0B1800D
:1021E0004D4B9B694C4A43F0010393614A4B9B69F9
:1021F00003F00103BB60BB68484A7B6A9B0802335B
:1022000052F82330FB607B6A03F003039B000F222C
:1022100002FA03F3DB43FA681340FB607B68404A31
:10222000934213D07B683F4A93420DD07B683E4A6D
:10223000934207D07B683D4A934201D1032306E0D5
:10224000042304E0022302E0012300E000237A6A71
:1022500002F0030292009340FA681343FB602F4997
:102260007B6A9B080233FA6841F823203B685B686D
:1022700003F48013002B06D02D4B9A682C49BB69C0
:1022800013438B6006E02A4B9A68BB69DB432849FD
:1022900013408B603B685B6803F40013002B06D08F
:1022A000234BDA682249BB691343CB6006E0204B1D
:1022B000DA68BB69DB431E491340CB603B685B684F
:1022C00003F40033002B06D0194B5A681849BB6938
:1022D00013434B6006E0164B5A68BB69DB43144955
:1022E00013404B603B685B6803F48033002B21D0C4
:1022F0000F4B1A680E49BB6913430B6021E000BF06
:1023000000003210000031100000221000002110E7
:1023100000001210000011100010024000000140E7
:1023200000080140000C0140001001400014014071
:10233000000401400B4B1A68BB69DB430949134099
:102340000B607B6A01337B623B681A687B6A22FA06
:1023500003F3002B7FF48EAE00BF00BF2C37BD46C9
:1023600080BC70470004014080B483B000AF786047
:102370000B467B8013467B707B78002B03D07A88DA
:102380007B681A6103E07B881A047B681A6100BFCE
:102390000C37BD4680BC704780B582B000AF0346A5
:1023A000FB80084B5A69FB881340002B06D0054A76
:1023B000FB885361FB88184602F072FB00BF0837A8
:1023C000BD4680BD0004014080B586B000AF786096
:1023D0007B68002B01D1012372E27B681B6803F04C
:1023E0000103002B00F08780924B5B6803F00C0325
:1023F000042B0CD08F4B5B6803F00C03082B12D11D
:102400008C4B5B6803F48033B3F5803F0BD1894B71
:102410001B6803F40033002B6CD07B685B68002BD7
:1024200068D101234CE27B685B68B3F5803F06D13D
:10243000804B1B687F4A43F4803313602EE07B6837
:102440005B68002B0CD17B4B1B687A4A23F48033EA
:102450001360784B1B68774A23F4802313601DE0D8
:102460007B685B68B3F5A02F0CD1724B1B68714A77
:1024700043F4802313606F4B1B686E4A43F4803330
:1024800013600BE06B4B1B686A4A23F480331360C4
:10249000684B1B68674A23F4802313607B685B6882
:1024A000002B13D0FFF7DAFB386108E0FFF7D6FB0B
:1024B00002463B69D31A642B01D9032300E25D4B2A
:1024C0001B6803F40033002BF0D014E0FFF7C6FBC9
:1024D000386108E0FFF7C2FB02463B69D31A642B60
:1024E00001D90323ECE1534B1B6803F40033002BA9
:1024F000F0D100E000BF7B681B6803F00203002BF3
:1025000063D04C4B5B6803F00C03002B0BD0494BA2
:102510005B6803F00C03082B1CD1464B5B6803F48B
:102520008033002B16D1434B1B6803F00203002BB2
:1025300005D07B681B69012B01D00123C0E13D4B15
:102540001B6823F0F8027B685B69DB0039491343A1
:102550000B603AE07B681B69002B20D0364B0122D0
:102560001A60FFF77BFB386108E0FFF777FB024654
:102570003B69D31A022B01D90323A1E12D4B1B6820
:1025800003F00203002BF0D02A4B1B6823F0F80263
:102590007B685B69DB00274913430B6015E0264B22
:1025A00000221A60FFF75AFB386108E0FFF756FB7C
:1025B00002463B69D31A022B01D9032380E11D4B4C
:1025C0001B6803F00203002BF0D17B681B6803F04B
:1025D0000803002B3AD07B689B69002B19D0174B5E
:1025E00001221A60FFF73AFB386108E0FFF736FB7B
:1025F00002463B69D31A022B01D9032360E10D4B3C
:102600005B6A03F00203002BF0D0012000F0CEFA49
:102610001CE00A4B00221A60FFF720FB38610FE034
:10262000FFF71CFB02463B69D31A022B08D9032390
:1026300046E100BF001002400000424280044242D6
:10264000924B5B6A03F00203002BE9D17B681B68A5
:1026500003F00403002B00F0A6800023FB758B4BD6
:10266000DB6903F08053002B0DD1884BDB69874A6F
:1026700043F08053D361854BDB6903F08053BB602B
:10268000BB680123FB75824B1B6803F48073002B2E
:1026900018D17F4B1B687E4A43F480731360FFF7A9
:1026A000DDFA386108E0FFF7D9FA02463B69D31A30
:1026B000642B01D9032303E1754B1B6803F480737A
:1026C000002BF0D07B68DB68012B06D16F4B1B6AB7
:1026D0006E4A43F0010313622DE07B68DB68002B38
:1026E0000CD16A4B1B6A694A23F001031362674BE2
:1026F0001B6A664A23F0040313621CE07B68DB68F4
:10270000052B0CD1614B1B6A604A43F00403136232
:102710005E4B1B6A5D4A43F0010313620BE05B4BA7
:102720001B6A5A4A23F001031362584B1B6A574A2B
:1027300023F0040313627B68DB68002B15D0FFF7DE
:102740008DFA38610AE0FFF789FA02463B69D31A2D
:1027500041F28832934201D90323B1E04B4B1B6A0B
:1027600003F00203002BEED014E0FFF777FA386194
:102770000AE0FFF773FA02463B69D31A41F2883246
:10278000934201D903239BE0404B1B6A03F00203F1
:10279000002BEED1FB7D012B05D13C4BDB693B4A85
:1027A00023F08053D3617B68DB69002B00F08780C6
:1027B000364B5B6803F00C03082B61D07B68DB6948
:1027C000022B46D1334B00221A60FFF747FA3861DB
:1027D00008E0FFF743FA02463B69D31A022B01D9FE
:1027E00003236DE0294B1B6803F00073002BF0D12D
:1027F0007B681B6AB3F5803F08D1244B5B6823F4E8
:1028000000327B689B68214913434B601F4B5B6818
:1028100023F474127B68196A7B685B6A0B431B495B
:1028200013434B601B4B01221A60FFF717FA386104
:1028300008E0FFF713FA02463B69D31A022B01D9CD
:1028400003233DE0114B1B6803F00073002BF0D015
:1028500035E0104B00221A60FFF700FA386108E0FB
:10286000FFF7FCF902463B69D31A022B01D9032377
:1028700026E0064B1B6803F00073002BF0D11EE02E
:102880007B68DB69012B07D1012319E000100240AE
:1028900000700040600042420B4B5B68FB60FB68CD
:1028A00003F480327B681B6A9A4206D1FB6803F40A
:1028B00070127B685B6A9A4201D0012300E000231A
:1028C00018461837BD4680BD0010024080B584B060
:1028D00000AF786039607B68002B01D10123D0E024
:1028E0006A4B1B6803F007033A689A4210D9674B9A
:1028F0001B6823F0070265493B6813430B60634B79
:102900001B6803F007033A689A4201D00123B8E03C
:102910007B681B6803F00203002B20D07B681B68D8
:1029200003F00403002B05D0594B5B68584A43F46D
:10293000E06353607B681B6803F00803002B05D03D
:10294000534B5B68524A43F460535360504B5B688F
:1029500023F0F0027B689B684D4913434B607B6812
:102960001B6803F00103002B40D07B685B68012BE0
:1029700007D1474B1B6803F40033002B15D101230B
:102980007FE07B685B68022B07D1414B1B6803F03B
:102990000073002B09D1012373E03D4B1B6803F04A
:1029A0000203002B01D101236BE0394B5B6823F05C
:1029B00003027B685B68364913434B60FFF74EF9AF
:1029C000F8600AE0FFF74AF90246FB68D31A41F2C1
:1029D0008832934201D9032353E02D4B5B6803F007
:1029E0000C027B685B689B009A42EBD1274B1B680B
:1029F00003F007033A689A4210D2244B1B6823F075
:102A0000070222493B6813430B60204B1B6803F00D
:102A100007033A689A4201D0012332E07B681B68C1
:102A200003F00403002B08D0194B5B6823F4E06229
:102A30007B68DB68164913434B607B681B6803F0B7
:102A40000803002B09D0124B5B6823F460527B68AB
:102A50001B69DB000E4913434B6000F021F802466E
:102A60000B4B5B681B0903F00F030A49CB5C22FA8E
:102A700003F3094A1360094B1B681846FFF7ACF8CB
:102A8000002318461037BD4680BD00BF002002401D
:102A9000001002409CA40008000000200400002058
:102AA00080B487B000AF0023FB600023BB6000232D
:102AB0007B6100237B6000233B611E4B5B68FB60F6
:102AC000FB6803F00C03042B02D0082B03D027E093
:102AD000194B3B6127E0FB689B0C03F00F03174A7F
:102AE000D35C7B60FB6803F48033002B10D0114B68
:102AF0005B685B0C03F00103114AD35CBB607B682D
:102B00000D4A03FB02F2BB68B2FBF3F37B6104E006
:102B10007B680C4A02FB03F37B617B693B6102E04B
:102B2000054B3B6100BF3B6918461C37BD4680BC66
:102B3000704700BF0010024000127A00B4A40008E1
:102B4000C4A4000800093D0080B400AF024B1B681C
:102B50001846BD4680BC70470000002080B500AF1D
:102B6000FFF7F2FF0246054B5B681B0A03F0070301
:102B70000349CB5C22FA03F3184680BD00100240E3
:102B8000ACA4000880B500AFFFF7DEFF0246054B9E
:102B90005B68DB0A03F007030349CB5C22FA03F30B
:102BA000184680BD00100240ACA4000880B485B077
:102BB00000AF78600A4B1B680A4AA2FB03235B0A3A
:102BC0007A6802FB03F3FB6000BFFB685A1EFA60E1
:102BD000002BF9D100BF00BF1437BD4680BC704741
:102BE00000000020D34D621080B582B000AF786045
:102BF0007B68002B01D1012341E07B6893F83D30D5
:102C0000DBB2002B06D17B68002283F83C20786879
:102C1000FEF7A8FD7B68022283F83D207B681A68D6
:102C20007B6804331946104600F0A2FA7B68012243
:102C300083F846207B68012283F83E207B680122CE
:102C400083F83F207B68012283F840207B680122C3
:102C500083F841207B68012283F842207B680122AF
:102C600083F843207B68012283F844207B6801229B
:102C700083F845207B68012283F83D200023184615
:102C80000837BD4680BD000080B485B000AF7860D5
:102C90007B6893F83D30DBB2012B01D001233AE091
:102CA0007B68022283F83D207B681B68DA687B68BA
:102CB0001B6842F00102DA607B681B68184A934285
:102CC0000ED07B681B68B3F1804F09D07B681B680E
:102CD000144A934204D07B681B68134A934211D173
:102CE0007B681B689B6803F00703FB60FB68062B8F
:102CF00010D07B681B681A687B681B6842F0010271
:102D00001A6007E07B681B681A687B681B6842F0E2
:102D100001021A60002318461437BD4680BC704774
:102D2000002C0140000400400008004080B483B043
:102D300000AF78607B681B68DA687B681B6822F0EC
:102D40000102DA607B681B681A6A41F211131340B2
:102D5000002B0FD17B681B681A6A40F24443134072
:102D6000002B07D17B681B681A687B681B6822F000
:102D700001021A607B68012283F83D200023184677
:102D80000C37BD4680BC704780B582B000AF78601C
:102D90007B681B681B6903F00203022B22D17B684E
:102DA0001B68DB6803F00203022B1BD17B681B68E6
:102DB0006FF002021A617B6801221A777B681B6838
:102DC0009B6903F00303002B03D0786800F0B4F98B
:102DD00005E0786800F0A7F9786800F0B6F97B683C
:102DE00000221A777B681B681B6903F00403042B1D
:102DF00022D17B681B68DB6803F00403042B1BD122
:102E00007B681B686FF004021A617B6802221A77E4
:102E10007B681B689B6903F44073002B03D07868C0
:102E200000F08AF905E0786800F07DF9786800F034
:102E30008CF97B6800221A777B681B681B6903F09A
:102E40000803082B22D17B681B68DB6803F00803AA
:102E5000082B1BD17B681B686FF008021A617B6826
:102E600004221A777B681B68DB6903F00303002BDD
:102E700003D0786800F060F905E0786800F053F955
:102E8000786800F062F97B6800221A777B681B681B
:102E90001B6903F01003102B22D17B681B68DB68D1
:102EA00003F01003102B1BD17B681B686FF010021E
:102EB0001A617B6808221A777B681B68DB6903F458
:102EC0004073002B03D0786800F036F905E078688D
:102ED00000F029F9786800F038F97B6800221A7749
:102EE0007B681B681B6903F00103012B0ED17B6813
:102EF0001B68DB6803F00103012B07D17B681B68AB
:102F00006FF001021A61786801F0D6FE7B681B68D9
:102F10001B6903F08003802B0ED17B681B68DB6884
:102F200003F08003802B07D17B681B686FF0800261
:102F30001A61786800F07BFA7B681B681B6903F0F4
:102F40004003402B0ED17B681B68DB6803F0400315
:102F5000402B07D17B681B686FF040021A617868CC
:102F600000F0FCF87B681B681B6903F02003202B32
:102F70000ED17B681B68DB6803F02003202B07D190
:102F80007B681B686FF020021A61786800F046FACF
:102F900000BF0837BD4680BD80B584B000AF786003
:102FA00039600023FB737B6893F83C30012B01D11F
:102FB0000223B4E07B68012283F83C207B68022274
:102FC00083F83D207B681B689B68BB60BB6823F06F
:102FD0007703BB60BB6823F47F43BB607B681B68DF
:102FE000BA689A603B681B68B3F5005F3ED0B3F5E2
:102FF000005F00F28780B3F5805F00F08680B3F554
:10300000805F7FD8702B1AD0702B7BD8602B50D06C
:10301000602B77D8502B3CD0502B73D8402B58D0F6
:10302000402B6FD8302B64D0302B6BD8202B60D046
:10303000202B67D8002B5CD0102B5AD062E07B6825
:1030400018683B6899683B685A683B68DB6800F021
:1030500068F97B681B689B68BB60BB6843F07703BB
:10306000BB607B681B68BA689A604FE07B68186831
:103070003B6899683B685A683B68DB6800F051F927
:103080007B681B689A687B681B6842F480429A6080
:103090003CE07B6818683B6859683B68DB681A4607
:1030A00000F0C8F87B681B685021184600F01FF933
:1030B0002CE07B6818683B6859683B68DB681A46F7
:1030C00000F0E6F87B681B686021184600F00FF9F5
:1030D0001CE07B6818683B6859683B68DB681A46E7
:1030E00000F0A8F87B681B684021184600F0FFF844
:1030F0000CE07B681A683B681B681946104600F0B4
:10310000F6F803E00123FB7300E000BF7B680122B7
:1031100083F83D207B68002283F83C20FB7B184627
:103120001037BD4680BD80B483B000AF786000BF6B
:103130000C37BD4680BC704780B483B000AF786068
:1031400000BF0C37BD4680BC704780B483B000AF71
:10315000786000BF0C37BD4680BC704780B483B038
:1031600000AF786000BF0C37BD4680BC70470000E0
:1031700080B485B000AF786039607B681B68FB6005
:103180007B68294A93420BD07B68B3F1804F07D00C
:103190007B68264A934203D07B68254A934208D134
:1031A000FB6823F07003FB603B685B68FA681343BD
:1031B000FB607B681C4A93420BD07B68B3F1804F65
:1031C00007D07B68194A934203D07B68184A934220
:1031D00008D1FB6823F44073FB603B68DB68FA6846
:1031E0001343FB60FB6823F080023B685B69134379
:1031F000FB607B68FA681A603B689A687B68DA62F1
:103200003B681A687B689A627B68074A934203D1DD
:103210003B681A697B681A637B6801225A6100BFA8
:103220001437BD4680BC7047002C014000040040AC
:103230000008004080B487B000AFF860B9607A60E1
:10324000FB681B6A7B61FB681B6A23F00102FB6859
:103250001A62FB689B693B613B6923F0F0033B61A9
:103260007B681B013A6913433B617B6923F00A03C6
:103270007B617A69BB6813437B61FB683A699A6139
:10328000FB687A691A6200BF1C37BD4680BC704774
:1032900080B487B000AFF860B9607A60FB681B6AE1
:1032A0007B61FB681B6A23F01002FB681A62FB68F3
:1032B0009B693B613B6923F470433B617B681B0363
:1032C0003A6913433B617B6923F0A0037B61BB68D0
:1032D0001B017A6913437B61FB683A699A61FB6859
:1032E0007A691A6200BF1C37BD4680BC704780B443
:1032F00085B000AF786039607B689B68FB60FB68D5
:1033000023F07003FB603A68FB68134343F0070344
:10331000FB607B68FA689A6000BF1437BD4680BCCA
:10332000704780B487B000AFF860B9607A603B60E6
:10333000FB689B687B617B6923F47F437B613B680F
:103340001A027B681A43BB6813437A6913437B6193
:10335000FB687A699A6000BF1C37BD4680BC704725
:1033600080B485B000AF786039607B6893F83C30FA
:10337000012B01D1022346E07B68012283F83C2027
:103380007B68022283F83D207B681B685B68FB60DA
:103390007B681B689B68BB60FB6823F07003FB6065
:1033A0003B681B68FA681343FB607B681B68FA681C
:1033B0005A607B681B68164A93420ED07B681B6874
:1033C000B3F1804F09D07B681B68124A934204D046
:1033D0007B681B68104A93420CD1BB6823F08003C2
:1033E000BB603B685B68BA681343BB607B681B6863
:1033F000BA689A607B68012283F83D207B680022CE
:1034000083F83C20002318461437BD4680BC704723
:10341000002C0140000400400008004080B483B04C
:1034200000AF786000BF0C37BD4680BC704780B4E9
:1034300083B000AF786000BF0C37BD4680BC7047DA
:1034400080B582B000AF78607B68002B01D101238A
:1034500042E07B6893F84130DBB2002B06D17B68F9
:10346000002283F840207868FEF7F4F97B68242274
:1034700083F841207B681B68DA687B681B6822F44C
:103480000052DA60786800F069FE7B681B681A6990
:103490007B681B6822F490421A617B681B685A693A
:1034A0007B681B6822F02A025A617B681B68DA6815
:1034B0007B681B6842F40052DA607B6800225A6421
:1034C0007B68202283F841207B68202283F84220F9
:1034D0007B6800225A63002318460837BD4680BD2A
:1034E00080B58AB002AFF860B9603B601346FB80DC
:1034F00000237B61FB6893F84130DBB2202B6DD158
:10350000BB68002B02D0FB88002B01D1012366E0B1
:10351000FB6800225A64FB68212283F84120FEF7F1
:103520009DFB7861FB68FA889A84FB68FA88DA84E4
:10353000FB689B68B3F5805F08D1FB681B69002BB3
:1035400004D10023FB61BB68BB6103E0BB68FB6186
:103550000023BB612AE03B6800937B690022802145
:10356000F86800F0B8FB0346002B01D0032336E0D7
:10357000FB69002B0BD1BB691B881A46FB681B68D3
:10358000C2F308025A60BB690233BB6107E0FB6902
:103590001A78FB681B685A60FB690133FB61FB68A2
:1035A000DB8C9BB2013B9AB2FB68DA84FB68DB8C54
:1035B0009BB2002BCFD13B6800937B690022402156
:1035C000F86800F088FB0346002B01D0032306E0D7
:1035D000FB68202283F84120002300E002231846E4
:1035E0002037BD4680BD80B584B000AFF860B960BB
:1035F0001346FB80FB6893F84230DBB2202B12D1DC
:10360000BB68002B02D0FB88002B01D101230BE00B
:10361000FB6800221A63FB881A46B968F86800F054
:10362000C8FB034600E0022318461037BD4680BDA4
:1036300080B59AB000AF78607B681B680C33BB64C0
:10364000BB6C53E8003F7B647B6C23F490737B6618
:103650007B681B680C337A6E7A653B65396D7A6DD1
:1036600041E80023FB64FB6C002BE5D17B681B6801
:1036700014337B637B6B53E8003F3B633B6B23F06E
:1036800001033B667B681B6814333A6E3A64FB6344
:10369000F96B3A6C41E80023BB63BB6B002BE5D1AF
:1036A0007B681B6B012B19D17B681B680C333B6259
:1036B0003B6A53E8003FFB61FB6923F01003FB65A5
:1036C0007B681B680C33FA6DFA62BB62B96AFA6AEE
:1036D00041E800237B627B6A002BE5D17B681B6895
:1036E0005B6903F04003002B36D07B681B68143302
:1036F000FB60FB6853E8003FBB60BB6823F04003FE
:10370000BB657B681B681433BA6DBA617B617969EC
:10371000BA6941E800233B613B69002BE5D17B6836
:10372000DB6B002B18D07B68DB6B00225A637B6855
:10373000DB6B1846FEF7D5FB0346002B0CD07B68ED
:10374000DB6B1846FEF780FC0346202B04D17B6818
:1037500010225A6403230AE07B680022DA857B6822
:10376000202283F842207B6800221A630023184637
:103770006837BD4680BD000080B5BAB000AF786044
:103780007B681B681B68C7F8E4307B681B68DB68D4
:10379000C7F8E0307B681B685B69C7F8DC30002342
:1037A000C7F8D8300023C7F8D430D7F8E43003F096
:1037B0000F03C7F8D830D7F8D830002B0FD1D7F87F
:1037C000E43003F02003002B09D0D7F8E03003F0F9
:1037D0002003002B03D0786800F001FC5BE2D7F8EF
:1037E000D830002B00F0DE80D7F8DC3003F0010386
:1037F000002B06D1D7F8E03003F49073002B00F0D3
:10380000D180D7F8E43003F00103002B0BD0D7F8B8
:10381000E03003F48073002B05D07B685B6C43F0D1
:1038200001027B685A64D7F8E43003F00403002BEC
:103830000BD0D7F8DC3003F00103002B05D07B68F8
:103840005B6C43F002027B685A64D7F8E43003F003
:103850000203002B0BD0D7F8DC3003F00103002B60
:1038600005D07B685B6C43F004027B685A64D7F830
:10387000E43003F00803002B11D0D7F8E03003F058
:103880002003002B05D1D7F8DC3003F00103002B17
:1038900005D07B685B6C43F008027B685A647B68E8
:1038A0005B6C002B00F0F281D7F8E43003F02003CA
:1038B000002B08D0D7F8E03003F02003002B02D013
:1038C000786800F08CFB7B681B685B6903F0400341
:1038D000002B14BF01230023DBB2C7F8D4307B6870
:1038E0005B6C03F00803002B03D1D7F8D430002B16
:1038F0004FD0786800F096FA7B681B685B6903F02C
:103900004003002B41D07B681B681433C7F89C3000
:10391000D7F89C3053E8003FC7F89830D7F8983074
:1039200023F04003C7F8D0307B681B681433D7F806
:10393000D020C7F8A820C7F8A430D7F8A410D7F82B
:10394000A82041E80023C7F8A030D7F8A030002B0A
:10395000D9D17B68DB6B002B13D07B68DB6B7E4A95
:103960005A637B68DB6B1846FEF7F6FA0346002BBA
:1039700016D07B68DB6B5B6B7A68D26B104698471E
:103980000EE0786800F093F90AE0786800F08FF9AB
:1039900006E0786800F08BF97B6800225A6475E1D4
:1039A00000BF73E17B681B6B012B40F04F81D7F8A0
:1039B000E43003F01003002B00F04881D7F8E0302A
:1039C00003F01003002B00F041810023BB607B68F3
:1039D0001B681B68BB607B681B685B68BB60BB685F
:1039E0007B681B685B6903F04003002B00F0B68026
:1039F0007B68DB6B1B685B68A7F8BE30B7F8BE302E
:103A0000002B00F045817B689B8DB7F8BE209A4261
:103A100080F03E817B68B7F8BE20DA857B68DB6B7F
:103A20009B69202B00F088807B681B680C33C7F8EB
:103A30008830D7F8883053E8003FC7F88430D7F88B
:103A4000843023F48073C7F8B8307B681B680C336C
:103A5000D7F8B820C7F89420C7F89030D7F890105E
:103A6000D7F8942041E80023C7F88C30D7F88C3081
:103A7000002BD9D17B681B6814337B677B6F53E8BD
:103A8000003F3B673B6F23F00103C7F8B4307B680E
:103A90001B681433D7F8B420C7F88020FB67F96F90
:103AA000D7F8802041E80023BB67BB6F002BE1D132
:103AB0007B681B6814333B663B6E53E8003FFB6535
:103AC000FB6D23F04003C7F8B0307B681B681433EC
:103AD000D7F8B020FA66BB66B96EFA6E41E80023EB
:103AE0007B667B6E002BE3D17B68202283F842202B
:103AF0007B6800221A637B681B680C33FB64FB6CD9
:103B000053E8003FBB64BB6C23F01003C7F8AC3034
:103B10007B681B680C33D7F8AC20BA657B65796D80
:103B2000BA6D41E800233B653B6D002BE3D17B6818
:103B3000DB6B1846FEF7D5F97B6802225A637B6877
:103B40009A8D7B68DB8D9BB2D31A9BB2194678683D
:103B500000F0B6F89CE000BFE93E00087B689A8D53
:103B60007B68DB8D9BB2D31AA7F8CE307B68DB8DE8
:103B70009BB2002B00F08E80B7F8CE30002B00F007
:103B800089807B681B680C33BB63BB6B53E8003FC9
:103B90007B637B6B23F49073C7F8C8307B681B682A
:103BA0000C33D7F8C8207A643B64396C7A6C41E8EE
:103BB0000023FB63FB6B002BE3D17B681B68143392
:103BC0007B627B6A53E8003F3B623B6A23F0010360
:103BD000C7F8C4307B681B681433D7F8C4203A6335
:103BE000FB62F96A3A6B41E80023BB62BB6A002BB7
:103BF000E3D17B68202283F842207B6800221A638D
:103C00007B681B680C333B613B6953E8003FFB60FA
:103C1000FB6823F01003C7F8C0307B681B680C33C7
:103C2000D7F8C020FA61BB61B969FA6941E800239D
:103C30007B617B69002BE3D17B6802225A63B7F872
:103C4000CE301946786800F03BF823E0D7F8E4302E
:103C500003F08003002B09D0D7F8E03003F0800395
:103C6000002B03D0786800F053F914E0D7F8E43063
:103C700003F04003002B0ED0D7F8E03003F04003F0
:103C8000002B08D0786800F092F904E000BF02E051
:103C900000BF00E000BFE837BD4680BD80B483B000
:103CA00000AF786000BF0C37BD4680BC704780B461
:103CB00083B000AF786000BF0C37BD4680BC704752
:103CC00080B483B000AF78600B467B8000BF0C37B8
:103CD000BD4680BC704780B590B000AFF860B96059
:103CE0003B601346FB7150E0BB6CB3F1FF3F4CD01F
:103CF000BB6C002B07D0FDF7B1FF02463B68D31A1F
:103D0000BA6C9A4241D2FB681B680C33BB62BB6A37
:103D100053E8003F7B627B6A23F4D073FB63FB684C
:103D20001B680C33FA6B7A633B63396B7A6B41E83F
:103D30000023FB62FB6A002BE5D1FB681B68143390
:103D40007B617B6953E8003F3B613B6923F00103E2
:103D5000BB63FB681B681433BA6B3A62FB61F96999
:103D60003A6A41E80023BB61BB69002BE5D1FB68DF
:103D7000202283F84120FB68202283F84220FB6840
:103D8000002283F8402003230FE0FB681B681A68B9
:103D9000BB681340BA689A420CBF01230023DBB210
:103DA0001A46FB799A429FD0002318464037BD46F9
:103DB00080BD80B485B000AFF860B9601346FB8069
:103DC000FB68BA689A62FB68FA889A85FB68FA8889
:103DD000DA85FB6800225A64FB68222283F84220BD
:103DE000FB681B69002B07D0FB681B68DA68FB685F
:103DF0001B6842F48072DA60FB681B685A69FB68D2
:103E00001B6842F001025A61FB681B68DA68FB68B4
:103E10001B6842F02002DA60002318461437BD46C2
:103E200080BC704780B495B000AF78607B681B6839
:103E30000C337B637B6B53E8003F3B633B6B23F4AA
:103E40009073FB647B681B680C33FA6C3A64FB6309
:103E5000F96B3A6C41E80023BB63BB6B002BE5D1E7
:103E60007B681B6814333B623B6A53E8003FFB618D
:103E7000FB6923F00103BB647B681B681433BA6CD5
:103E8000FA62BB62B96AFA6A41E800237B627B6A24
:103E9000002BE5D17B681B6B012B19D17B681B685C
:103EA0000C33FB60FB6853E8003FBB60BB6823F04A
:103EB00010037B647B681B680C337A6CBA617B618E
:103EC0007969BA6941E800233B613B69002BE5D180
:103ED0007B68202283F842207B6800221A6300BF9F
:103EE0005437BD4680BC704780B584B000AF786061
:103EF0007B685B6AFB60FB680022DA85FB68002256
:103F0000DA84F868FFF7D3FE00BF1037BD4680BDE6
:103F100080B485B000AF78607B6893F84130DBB245
:103F2000212B3ED17B689B68B3F5805F14D17B6801
:103F30001B69002B10D17B681B6AFB60FB681B8828
:103F40001A467B681B68C2F308025A607B681B6ACA
:103F50009A1C7B681A6208E07B681B6A591C7A68A5
:103F600011621A787B681B685A607B68DB8C9BB295
:103F7000013B9BB27A681946D184002B0FD17B6834
:103F80001B68DA687B681B6822F08002DA607B6855
:103F90001B68DA687B681B6842F04002DA60002325
:103FA00000E0022318461437BD4680BC704780B538
:103FB00082B000AF78607B681B68DA687B681B683A
:103FC00022F04002DA607B68202283F84120786882
:103FD000FFF764FE002318460837BD4680BD80B554
:103FE0008CB000AF78607B6893F84230DBB2222B54
:103FF00040F0AE807B689B68B3F5805F17D17B682B
:104000001B69002B13D10023FB627B689B6ABB6298
:104010007B681B685B689BB2C3F308039AB2BB6AF8
:104020001A807B689B6A9A1C7B689A6226E07B6890
:104030009B6AFB620023BB627B689B68B3F5805F71
:1040400007D07B689B68002B0AD17B681B69002B1B
:1040500006D17B681B685B68DAB2FB6A1A7008E0FD
:104060007B681B685B68DBB203F07F03DAB2FB6A34
:104070001A707B689B6A5A1C7B689A627B68DB8D2E
:104080009BB2013B9BB27A681946D185002B5DD16A
:104090007B681B68DA687B681B6822F02002DA60A4
:1040A0007B681B68DA687B681B6822F48072DA60C0
:1040B0007B681B685A697B681B6822F001025A61A1
:1040C0007B68202283F842207B6800225A637B6849
:1040D0001B6B012B35D17B6800221A637B681B6840
:1040E0000C337B617B6953E8003F3B613B6923F004
:1040F00010037B627B681B680C337A6A3A62FB614F
:10410000F9693A6A41E80023BB61BB69002BE5D13C
:104110007B681B681B6803F01003102B0AD1002377
:10412000FB607B681B681B68FB607B681B685B68C7
:10413000FB60FB687B689B8D19467868FFF7C0FDC4
:1041400002E0786801F01EF8002302E0002300E09E
:10415000022318463037BD4680BD000080B584B0CC
:1041600000AF78607B681B681B6923F440517B6853
:10417000DA687B681B680A431A617B689A687B6807
:104180001B691A437B685B691343BB607B681B68D0
:10419000DB6823F4B05323F00C037A681268B96823
:1041A0000B43D3607B681B685B6923F440717B68B9
:1041B0009A697B681B680A435A617B681B682C4AB2
:1041C000934203D1FEF7DEFCF86002E0FEF7C6FC86
:1041D000F860FA6813469B0013449A001A447B68FF
:1041E0005B689B00B2FBF3F3224AA2FB03235B094B
:1041F0001901FA6813469B0013449A001A447B681D
:104200005B689B00B2FBF3F21A4BA3FB02035B0952
:10421000642000FB03F3D31A1B013233154AA2FBBF
:1042200003235B0903F0F0031944FA6813469B006B
:1042300013449A001A447B685B689B00B2FBF3F25C
:104240000C4BA3FB02035B09642000FB03F3D31AAE
:104250001B013233074AA2FB03235B0903F00F0261
:104260007B681B680A449A6000BF1037BD4680BD5A
:10427000003801401F85EB5180B500AF00224FF49C
:1042800080710848FEF770F800224FF4006105487D
:10429000FEF76AF8002280210348FEF765F800BFA8
:1042A00080BD00BF00080140000C014080B500AF98
:1042B00000224FF400710848FEF756F800224FF430
:1042C00080510548FEF750F8002240210348FEF7D0
:1042D0004BF800BF80BD00BF00080140000C01404A
:1042E00080B500AF00224FF480610848FEF73CF82B
:1042F00000224FF400410648FEF736F80022202144
:104300000348FEF731F800BF80BD00BF0008014040
:10431000000C014080B500AF114B4FF000021A6055
:10432000104B4FF000021A600F4B4FF000021A6062
:104330000E4B0F4A1A600F4B0D4A1A600E4B0C4A77
:104340001A6000224FF480710C48FEF70DF800222D
:104350004FF400710948FEF707F800BF80BD00BFA9
:104360006004002064040020680400203400002061
:10437000819B323A3800002030000020000C0140C0
:1043800080B500AF012205490548FFF72CF9FFF77A
:1043900073FFFFF78BFF00BF80BD00BFE00300206D
:1043A0005003002080B400AF0F4B00221A700F4B57
:1043B0001B680F4A13600F4B1B680F4A13600F4BAB
:1043C0001B680F4A13600F4B1B680F4A13600F4B9B
:1043D0001B680F4A13600F4B1B680F4A136000BF26
:1043E000BD4680BC704700BFBD0300208404002090
:1043F00078040020880400207C0400208C04002025
:104400008004002024000020180000202800002044
:104410001C0000202C0000202000002080B400AFF1
:10442000094B00221A60094B00221A60084B002237
:104430001A60084B00221A70074B00221A6000BF56
:10444000BD4680BC704700BFCC030020D0030020D5
:10445000D4030020BC0300200C00002080B500AF76
:1044600001224FF480710548FDF77EFF00224FF4D2
:1044700080710248FDF778FF00BF80BD000C01404D
:1044800080B500AF01224FF400710548FDF76CFFC5
:1044900000224FF400710248FDF766FF00BF80BDA7
:1044A000000C014080B500AF0648FEF7EDFB064862
:1044B000FEF7EAFB0548FEF7E7FB0548FEF7E4FBDD
:1044C00000BF80BD3002002078020020C002002022
:1044D0000803002080B500AF134B00221A70134B65
:1044E00001221A70124B01221A70124B01221A700B
:1044F0001148FEF71BFC1148FEF718FC1048FEF7A8
:1045000015FC01224FF480710E48FDF72DFF0122AA
:104510004FF400610B48FDF727FF012280210A4874
:10452000FDF722FF00BF80BDBD030020D80300209F
:10453000D9030020DA03002078020020C002002006
:104540000803002000080140000C014080B400AFC7
:1045500000BF054B93F90030002BFAD000BF00BF1D
:10456000BD4680BC704700BFBD03002080B400AFD3
:1045700000BF084B1B78012BFBD1074B1B78012B8D
:10458000F7D1064B1B78012BF3D100BF00BFBD460E
:1045900080BC7047D8030020D9030020DA03002034
:1045A00080B500AF184B1B78012B24D1174B1B781B
:1045B000012B20D1164B1B78012B1CD1FFF760FF7C
:1045C0001448FEF7B3FB104B00221A700F4B002269
:1045D0001A700F4B00221A700F4B01221A700F4BEA
:1045E0001B6801330D4A13600D4B1B6801330C4AE5
:1045F000136000F019F800224FF400510948FDF74C
:10460000B3FE00BF80BD00BFD8030020D903002047
:10461000DA03002030020020BC0300200C00002040
:10462000B8030020001001402DE9F043C3B00CAFE7
:10463000244B1B68FB60244B1B681846FBF7F4FEF9
:1046400004460D46214B1E68214B1B681846FBF79C
:10465000EBFE804689461F4B1968B9601E4B1B68EC
:104660001846FBF7E1FE02460B461C4909681C4848
:1046700090F90000786007F11000D7F804C0CDF879
:104680002CC00A91CDE90823B9680691CDE90489C7
:104690000296CDE90045FA68124901F0D7FC07F10E
:1046A00010031846FBF754FD03469AB207F11001B8
:1046B0004FF0FF330C48FEF713FF00BFDC37BD4659
:1046C000BDE8F083C003002060040020C403002084
:1046D00064040020C803002068040020B803002000
:1046E000BC03002048A40008500300200000000084
:1046F00080B584B000AF78604FF000017868FCF7B7
:10470000E9FC0346002B01D000232AE01A4978680F
:10471000FCF738FB03461846FBF786FE4FF0000215
:10472000164BFBF7D9FE02460B4611A1D1E9000159
:10473000FBF7FCFF02460B46104619464FF00002FD
:104740000F4BFBF711FD02460B4610461946FCF7CE
:10475000BBF90346FB60F86800F0ACF803467B81C8
:104760007B8918461037BD4680BD00BFAFF300807F
:1047700000000000882A914100C0334400408F406F
:104780000000F03F0000000080B584B000AF78600A
:104790004FF000017868FCF79DFC0346002B01D028
:1047A00000232AE01A497868FCF7ECFA0346184619
:1047B000FBF73AFE4FF00002164BFBF78DFE024668
:1047C0000B4611A1D1E90001FBF7B0FF02460B46F1
:1047D000104619464FF000020F4BFBF7C5FC02468E
:1047E0000B4610461946FCF76FF90346FB60F86864
:1047F00000F060F803467B817B8918461037BD4680
:1048000080BD00BFAFF3008000000000882A914106
:1048100000C0334400408F400000F03F0000000023
:1048200080B584B000AF78604FF000017868FCF785
:1048300051FC0346002B01D000232AE01A49786876
:10484000FCF7A0FA03461846FBF7EEFD4FF0000216
:10485000164BFBF741FE02460B4611A1D1E90001C0
:10486000FBF764FF02460B46104619464FF0000264
:104870000F4BFBF779FC02460B4610461946FCF736
:1048800023F90346FB60F86800F014F803467B81C7
:104890007B8918461037BD4680BD00BFAFF300804E
:1048A00000000000882A914100C0334400408F403E
:1048B0000000F03F80B582B000AF78604FF000019B
:1048C0007868FCF7FDFB0346002B01D000230EE0C7
:1048D00009497868FCF712FC0346002B02D04FF61A
:1048E000FF7304E07868FCF739FC03469BB2184676
:1048F0000837BD4680BD00BF00FF7F4780B500AFD1
:10490000584B1B68002B0FDD00224FF48061564886
:10491000FDF72AFD01224FF400715348FDF724FDF5
:10492000524B01221A7017E04E4B1B68002B13DA12
:104930004C4B1B685B424B4A136000224FF4806172
:104940004948FDF711FD00224FF400714648FDF77C
:104950000BFD464B02221A70454B1B68002B0FDDE6
:1049600000224FF400414348FDF7FEFC01224FF4C2
:1049700080513D48FDF7F8FC3F4B01221A7017E0CB
:104980003B4B1B68002B13DA394B1B685B42384AE0
:10499000136000224FF400413648FDF7E5FC002289
:1049A0004FF480513048FDF7DFFC334B02221A7080
:1049B000324B1B68002B0DDD002220212D48FDF716
:1049C000D3FC012240212B48FDF7CEFC2C4B0122C9
:1049D0001A7015E0294B1B68002B11DA274B1B6856
:1049E0005B42264A1360002220212248FDF7BCFCCE
:1049F000002240211F48FDF7B7FC214B02221A700C
:104A0000204B1B68204A126811461846FCF76EFAC4
:104A100003461846FCF77CFB03461A461B4B1A60FC
:104A20001B4B1B68184A126811461846FCF75EFAC1
:104A300003461846FCF76CFB03461A46154B1A60F2
:104A4000154B1B68104A126811461846FCF74EFABF
:104A500003461846FCF75CFB03461A460F4B1A60E8
:104A600000BF80BD7804002000080140DB03002067
:104A70007C040020000C0140DC03002080040020A6
:104A8000DD0300201C0000203C00002070040020FA
:104A9000180000206C040020200000207404002076
:104AA00080B582B000AF0346FB80FB88022B02D1A9
:104AB00000F04EF810E0FB88202B02D100F010F837
:104AC0000AE0FB88402B02D100F086F804E0FB8866
:104AD000802B01D100F0B8F800BF0837BD4680BD7B
:104AE00080B5B4B000AF3B1D1549184601F0AEFAD1
:104AF0003B1D1846FBF72CFB03469AB2391D4FF0BD
:104B0000FF331048FEF7ECFC0E48FEF791FDFFF76F
:104B1000E1FC0D4BC7F8CC3004E0D7F8CC30013BBA
:104B2000C7F8CC30D7F8CC30002BF6DC074B20226E
:104B30005A611720FDF7C7F900BFD037BD4680BDC9
:104B40006CA40008500300208096980000040140E7
:104B500080B5B4B000AF3B1D1949184601F076FA94
:104B60003B1D1846FBF7F4FA03469AB2391D4FF085
:104B7000FF331448FEF7B4FC00224FF400511248F2
:104B8000FDF7F2FB012211490E48FEF72CFDFFF75D
:104B900073FB0F4BC7F8CC3004E0D7F8CC30013BA7
:104BA000C7F8CC30D7F8CC30002BF6DC094B02220A
:104BB0005A610720FDF787F900BFD037BD4680BD99
:104BC00074A400085003002000100140E0030020FE
:104BD000404B4C000004014080B5B4B000AF3B1D19
:104BE0001549184601F032FA3B1D1846FBF7B0FA9A
:104BF00003469AB2391D4FF0FF331048FEF770FCA0
:104C00000E48FEF715FDFFF765FC0D4BC7F8CC30DD
:104C100004E0D7F8CC30013BC7F8CC30D7F8CC3023
:104C2000002BF6DC074B40225A611720FDF74BF9A9
:104C300000BFD037BD4680BD7CA4000850030020D3
:104C4000809698000004014080B5B4B000AF3B1DD1
:104C50001549184601F0FAF93B1D1846FBF778FA9A
:104C600003469AB2391D4FF0FF331048FEF738FC67
:104C70000E48FEF7DDFCFFF72DFC0D4BC7F8CC30DE
:104C800004E0D7F8CC30013BC7F8CC30D7F8CC30B3
:104C9000002BF6DC074B80225A611720FDF713F931
:104CA00000BFD037BD4680BD84A40008500300205B
:104CB000809698000004014080B582B000AF786013
:104CC0007B681B68104A934202D100F023F816E07B
:104CD0007B681B68B3F1804F02D100F02FF80EE023
:104CE0007B681B68094A934202D100F0DDF806E0B8
:104CF0007B681B68064A934201D100F08DF900BF22
:104D00000837BD4680BD00BF002C014000040040B4
:104D10000008004080B500AF064B1B680133054A10
:104D20001360044B1B685B00034A1360FFF77CFCB5
:104D300000BF80BD0C000020B803002080B500AF8C
:104D40004C4B1B78012B05D14B4B1B6801334A4A56
:104D5000136011E0474B1B78022B0DD1464B1B68AB
:104D6000002B04D1444B1B680133434A1360424B70
:104D70001B68013B404A1360404B1B6801333F4AAC
:104D8000136001224FF480613D48FDF7EDFA0022E7
:104D90004FF480613A48FDF7E7FA3A4B1B683A4A0C
:104DA000126811461846FBF7E5FE03461A46354BD6
:104DB0001A60344B1B68354A126811461846FCF7D6
:104DC00093F90346002B03D0304B1B682D4A136028
:104DD0002C4B1B681846FFF78BFC03461A462C4BDE
:104DE0001A802B4B1A884FF08043DA62294B1B68DC
:104DF0005B00294A1268934212D2274B1B681A465D
:104E0000244B1B68D31A03F164021C4B1B689A42A3
:104E100022D8224B1B6883F000431B4A13601BE01F
:104E20001D4B1B68002B17DD1A4B1B685A00134BD8
:104E30001B689A4210D3184B1B68DA0F13445B109F
:104E400064331A460D4B1B689A4205D8134B1B68F6
:104E500083F000430C4A1360084B1B680E4A12682B
:104E6000934205D30E4B01221A700E48FDF75EFFE8
:104E700000BF80BDDB030020C0030020CC03002066
:104E800000080140600400203400002018000020C9
:104E9000100000206C040020780400203C0000205A
:104EA000D80300207802002080B500AF4C4B1B785F
:104EB000012B05D14B4B1B6801334A4A136011E0AB
:104EC000474B1B78022B0DD1464B1B68002B04D19E
:104ED000444B1B680133434A1360424B1B68013B40
:104EE000404A1360404B1B6801333F4A1360012264
:104EF0004FF400413D48FDF737FA00224FF40041DE
:104F00003A48FDF731FA3A4B1B683A4A12681146A3
:104F10001846FBF72FFE03461A46354B1A60344BF2
:104F20001B68354A126811461846FCF7DDF803463F
:104F3000002B03D0304B1B682D4A13602C4B1B6891
:104F40001846FFF721FC03461A462C4B1A802B4BC0
:104F50001A882B4BDA622B4B1B685B002A4A1268BB
:104F6000934212D2284B1B681A46264B1B68D31A51
:104F700003F164021C4B1B689A4222D8234B1B6826
:104F800083F000431B4A13601BE01F4B1B68002B80
:104F900017DD1C4B1B685A00134B1B689A4210D339
:104FA000194B1B68DA0F13445B1064331A460E4B1F
:104FB0001B689A4205D8154B1B6883F000430D4AC5
:104FC0001360094B1B68104A1268934205D3104BBB
:104FD00001221A700F48FDF7A9FE00BF80BD00BF77
:104FE000DC030020C4030020D0030020000C01409B
:104FF00064040020380000201C0000201200002063
:1050000000040040700400207C0400203C000020CC
:10501000D9030020C002002080B500AF4B4B1B78A5
:10502000012B05D14A4B1B680133494A136011E03B
:10503000464B1B78022B0DD1454B1B68002B04D12E
:10504000434B1B680133424A1360414B1B68013BD1
:105050003F4A13603F4B1B6801333E4A13600122F5
:1050600020213D48FDF780F9002220213A48FDF734
:105070007BF93A4B1B683A4A126811461846FBF70F
:1050800079FD03461A46354B1A60344B1B68354A86
:10509000126811461846FCF727F80346002B03D088
:1050A000304B1B682D4A13602C4B1B681846FFF7CA
:1050B000B7FB03461A462C4B1A802B4B1A882B4BF6
:1050C000DA622B4B1B685B002A4A1268934212D2A9
:1050D000284B1B681A46264B1B68D31A03F164023F
:1050E0001C4B1B689A4222D8234B1B6883F0004359
:1050F0001B4A13601BE01F4B1B68002B17DD1C4B6A
:105100001B685A00134B1B689A4210D3194B1B683B
:10511000DA0F13445B1064331A460E4B1B689A4235
:1051200005D8154B1B6883F000430D4A1360094BEB
:105130001B68104A1268934205D3104B01221A7063
:105140000F48FDF7F3FD00BF80BD00BFDD03002069
:10515000C8030020D4030020000C01406804002094
:105160003000002020000020140000200008004033
:1051700074040020800400203C000020DA0300209A
:105180000803002080B584B000AF78607B681B689E
:105190004C4A934240F091804B4B1B78612B02D1DB
:1051A0004A4B00221A70494B1B781A46464B197815
:1051B000454B9954454B1B780133DAB2434B1A7077
:1051C000424B1B78013B404AD35C7A2B63D10023CE
:1051D000FB600023BB602BE03B4AFB6813441B7859
:1051E0006E2B16D13A4ABB68134400221A70394B11
:1051F0001B689B00384A13441A463849344800F06B
:1052000045FF344B1B680133324A13600023BB60F7
:105210000BE02D4AFB68134419782D4ABB681344F0
:105220000A461A70BB680133BB60FB680133FB6040
:10523000264B1B781A46FB689342CDDB234B00229A
:105240001A70244B00221A60234B5B681846FBF748
:105250005FFF0346224A13601F4B9B68214A13607D
:105260001D4BDB681846FBF753FF03461E4A1360CD
:10527000194B1B691D4A1360174B5B691846FBF7F6
:1052800047FF03461A4A1360134B9B69194A136080
:10529000194B01221A700D4B1B78632B02D90B4B53
:1052A00000221A7001224FF400511448FDF75CF8F7
:1052B000012205491248FEF796F900BF1037BD4696
:1052C00080BD00BF00440040E0030020BE0300207A
:1052D000A0030020B4030020440400208CA4000894
:1052E00084040020240000208804002028000020DE
:1052F0008C0400202C000020BD0300200010014081
:1053000050030020014B1868704700BF4000002088
:1053100070B500260C4D0D4C641BA410A64209D19B
:1053200005F086F800260A4D0A4C641BA410A6421C
:1053300005D170BD55F8043B98470136EEE755F8A6
:10534000043B98470136F2E784A9000884A90008C5
:1053500084A9000888A9000803460244934200D1AA
:10536000704703F8011BF9E7002B2DE9F0471F46B2
:10537000BBBF03F100431F4600232D2388B0144612
:10538000129A109D1370149BDDF84CA023F0200896
:10539000B8F1460F05D0B8F1450F00D10135022311
:1053A00000E0032307AA049206AACDE902A2CDE9F0
:1053B000003522463B4601F017FEB8F1470F06467E
:1053C00002D1119BDB0722D5B8F1460F06EB050988
:1053D00010D13378302B0AD10022002320463946E1
:1053E000FBF7E2FA18B9C5F10105CAF80050DAF87E
:1053F000003099440022002320463946FBF7D4FAB6
:1054000008B1CDF81C903022079B4B4507D330469E
:10541000079B159A9B1B136008B0BDE8F087591CC9
:1054200007911A70F0E70346F7B5002903F8022B3D
:10543000B6BF2D222B224942092942702BDD0DF1E6
:105440000704A4460A2791FBF7F60A46A64607FB7F
:105450001615632A05F13005314604F1FF340EF8C4
:10546000015CF0DC3031AEF1020504F8011C294684
:10547000441C61450AD30DF10902A2EB0E026545F9
:1054800088BF00221344181A03B0F0BD11F8012B95
:1054900004F8012FEDE7302330318370C170031D14
:1054A000F1E700002DE9F04F91B00C46DDF868807F
:1054B00016461F46054602F0EBFE036818460993A0
:1054C000FAF746FE00230E93D8F800300A9007330F
:1054D00023F0070303F1080294F81890D4F800B001
:1054E000C8F80020D3E90023C4E91223D4E9128AC2
:1054F0002AF000430B934FF0FF3240469C4B0B9930
:10550000FBF784FA70BB4FF0FF324046984B0B9983
:10551000FBF75EFA30BB0022002340465146FBF702
:105520004DFA10B12D2384F84330924B9248B9F1D3
:10553000470F94BF9846804603234FF0000A23612B
:105540002BF00403236033462146284600970FAA18
:1055500000F0D4F9013040F090804FF0FF3011B0EE
:10556000BDE8F08F4246534640465146FBF74EFA9F
:1055700048B1BAF1000FB8BF2D238048B8BF84F8F6
:1055800043307F4BD3E7636809F0DF015A1C42D1F7
:1055900006236360002206920EAACDE904920DAAAA
:1055A0004BF4806303920DF13302CDE901322360A5
:1055B000636842460093284653460B91FFF7D4FE9A
:1055C0000B99804647290D9908D1C81C02DB6368F6
:1055D000994240DDA9F102095FFA89F9B9F1650F35
:1055E0001FD84A46013904F150000D91FFF71BFF07
:1055F0000E9A82461318012A236102DC2268D20720
:1056000001D5013323619DF83330002B9BD02D232E
:1056100084F8433097E74729BCD1002BBAD1012346
:10562000B7E7B9F1660F18D1002963680BDD216176
:1056300013B92268D00702D501330B4423614FF020
:10564000000AA165DFE713B92268D20701D502334A
:10565000F4E70123F2E74FF067090E9B994205DB5F
:1056600023682161D807EAD54B1CE7E70029CCBFA6
:105670000122C1F102021344E0E723685A0507D46E
:105680002369424631462846B84701302BD164E7AA
:10569000B9F1650F40F2DD80D4E912010022002348
:1056A000FBF782F9002833D0012331462846354ADA
:1056B000B84701303FF451AFDDE90D239A4202DBD8
:1056C0002368D8070FD5DDE9092331462846B847B6
:1056D00001303FF442AF4FF0000804F11A090E9B6D
:1056E000013B434509DC23689B0700F10281E06828
:1056F0000F9B9842B8BF184631E701234A4631460E
:105700002846B84701303FF428AF08F10108E6E722
:105710000D9B002B38DC012331462846194AB84737
:1057200001303FF41AAFDDE90D23134302D12368A2
:10573000D907D8D5DDE9092331462846B8470130D5
:105740003FF40BAF4FF0000904F11A0A0D9B5B42C6
:105750004B4501DC0E9B94E7012352463146284617
:10576000B84701303FF4F9AE09F10109EEE700BF97
:10577000FFFFEF7FCCA40008D0A40008D8A4000845
:10578000D4A40008D1A800080E9AA36D9A42A8BF1D
:105790001A46002A914637DC4FF0000B29EAE979D6
:1057A00004F11A02D4F858A0AAEB09035B4533DCD4
:1057B000DDE90D239A423BDB2368DA0738D40E9BE0
:1057C0000D99A3EB0A02A3EB01099145A8BF9146ED
:1057D000B9F1000F34DC4FF0000829EAE97904F14F
:1057E0001A0ADDE90D239B1AA3EB090343457FF752
:1057F0007AAF0123524631462846B84701303FF47C
:10580000ACAE08F10108ECE71346314642462846A3
:10581000B8470130C0D1A0E60123314628460B929B
:10582000B84701303FF499AE0B9A0BF1010BB9E781
:105830003146DDE909232846B8470130BFD18CE65F
:105840004B463146284608EB0A02B8470130C2D120
:1058500083E60E9A012A01DCDB0737D50123424695
:1058600031462846B84701303FF477AEDDE90923D9
:1058700031462846B84701303FF46FAED4E91201F3
:1058800000220023FBF790F8D8B90E9B08F1010223
:10589000013B31462846B84701300ED15DE6012371
:1058A0004A4631462846B84701303FF456AE08F123
:1058B00001080E9B013B4345F1DC534604F15002C5
:1058C000E0E64FF0000804F11A09F2E7012342462E
:1058D000DFE701234A4631462846B84701303FF406
:1058E0003CAE08F10108E3680F995B1A4345F0DC10
:1058F000FDE64FF0000804F11909F4E72DE9F0473F
:10590000164699468A680B6907469342B8BF134604
:10591000336091F843200C46DDF820800AB1013352
:1059200033602368990642BF3368023333602568C9
:1059300015F0060506D104F1190AE36832689B1ACE
:10594000AB4228DC94F84320131E226818BF0123C1
:1059500092062DD44946384604F14302C04701302F
:1059600020D02368E56803F00603042B18BF002548
:1059700032684FF00006A36808BFAD1A226908BF5D
:1059800025EAE5759342C4BF9B1AED181A34B54257
:105990001AD1002008E00123524649463846C04744
:1059A000013003D14FF0FF30BDE8F0870135C4E787
:1059B0003020E11881F843005A1C94F84510224425
:1059C000023382F84310C5E7012322464946384690
:1059D000C0470130E6D00136D9E700002DE9FF4786
:1059E0000F7E9146782F80460C469A460C9D01F119
:1059F000430207D8622F0AD8002F00F0D980582F11
:105A000000F0A48004F1420584F842703AE0A7F166
:105A10006303152BF6D801A151F823F0755A00083D
:105A2000895A0008055A0008055A0008055A000856
:105A3000055A0008895A0008055A0008055A000846
:105A4000055A0008055A0008975B0008B95A000873
:105A5000795B0008055A0008055A0008B95B000880
:105A6000055A0008B95A0008055A0008055A0008E6
:105A7000815B00082B681A1D1B682A6004F142052F
:105A800084F842300123A4E020682968060601F169
:105A900004030AD50E682B60002E03DA2D2376420C
:105AA00084F843300A235E4819E00E6810F0400F76
:105AB0002B6018BF36B2EFE72B682068191D2960EC
:105AC000010601D51E6802E04606FBD51E886F2F31
:105AD0000CBF08230A235248002184F8431065684C
